:020000040000FA
:06000000020B530202494D
:03002B0002093394
:030033000206BB07
:03004300020801AF
:0300530002017E29
:03006B00020695F5
:100083000201DD010020FD00020000930F000000CB
:1000930000000035100000F30F00007B0F0000008C
:1000A300000000000000000000000000000000004D
:1000B300000000000006FFFF060008B8180000005B
:1000C3000160EA00005357353A2048656C702020E0
:1000D30020202020200037144314000049144F141B
:1000E30000000000000000000000010000000020EC
:1000F300202020202020202020202020202020011C
:10010300080401000100026A82026E8201010104F7
:10011300000419000000E8030000FFFFD019E80302
:10012300000064006400B801A0BB0D00A0BB0D007B
:10013300020200F8FF070502070401051E02051E5F
:10014300020A0A0102080803B80B02803E0102FEFC
:10015300FFE8030A050001FFFF010A1401E00101A2
:1001630005030101FF0F10FEFFBE2A0000000092ED
:100173002900000000FF000000FF00C0E074F1123E
:100183000460A2AFE433F509D2AF85A708AFA1EFAE
:100193005508FE74105E6006120D1175A1EF740808
:1001A3005E6008120D1775A1F78024EFA2E092F0AC
:1001B300E508A2E082F05017906198E0F89005837B
:1001C300E0C398A2D265D0335002E8F075A1FEE5F2
:1001D30009A2E092AF7F020204BFC0E074F21204EE
:1001E30060A2AFE433FED2AF9061A4E0F8759B0048
:1001F300E59158540860087591F7120D5F8023E567
:100203009158541060087591EF120D658014E591B3
:10021300A2E092F0E8A2E082F05007E0C2E0F01220
:100223000EAF9061A3E0F8E5E9585404600E120E96
:100233008575E9FB906193E0A2E640F2EEA2E092BD
:10024300AF7F010204BFC0E074F2120460A2AFE406
:1002530033FED2AF9061A5E0F8E5BF5854046006C1
:1002630075BFFB120EC780D4C3E498F8E499F91262
:1002730002AC8026C3E49AFAE49BFBE920E7E91287
:1002830002ACE498F8E499F922C3E498F8E499F904
:100293001202ACE498F8E499F9C3E49AFAE49BFBFC
:1002A30022EB20E7CFE920E7E0B90010BB0008E824
:1002B3008AF084F8AAF022E4FBC8FA22EB70227BCE
:1002C30010C833C8C933C9335007C39AC3DBF2809C
:1002D300069A50012ADBEAC833F4C8C933F4C9FAD1
:1002E3002275F008E4C833C8C933C933C99AC99B16
:1002F3005004C92AC93BD5F0ECFBC833F4C8E4C9A0
:10030300FA22080808EAC0E0EBC0E086F0E7A4FAA6
:10031300180986F0E7A42AFA180986F0E7A42AFA4E
:10032300180986F0E7A42AFA1986F0E7A4FBE5F09A
:100333002AFA190886F0E7A42BFBE5F03AFA190824
:1003430086F0E7A42BFBE5F03AFA18180986F0E7E4
:10035300A4C5F02BFBE43AFA1908E7C5F0C6A426B6
:10036300F6E5F03BFBE43AFA1886F0E7A4F6E5F08D
:100373000826F6E43B08F6E43A08F6D0E0FBD0E0C2
:10038300FA22E4CFC0E0E4CEC0E0E4CDC0E0E4CCA8
:10039300C0E075F020E626F608E633F608E633F605
:1003A30008E633F6181818EC33FCED33FDEE33FE94
:1003B300EF33FFC3EC9709ED9709EE9709EF971910
:1003C3001919400FFFEC97FC09ED97FD09EE97FE15
:1003D300191906D5F0BFECF709EDF709EEF709EFA8
:1003E300F7191919D0E0FCD0E0FDD0E0FED0E0FF12
:1003F300222518C582C0E0E51934FFC583C0E0E5B6
:1004030018C3958224F810AF088583198582188054
:1004130008858319858218D2AFCEF0A3E520F0A317
:100423007808E608F0A3DEFAEFF0A3E58124FAF8F2
:10043300E608F0A3E608F0A3E608F0A30808E60838
:10044300F0A3E608F0A315811581D0E0FED0E0F813
:10045300158115811581E8C0E0EEC0E022C0D025EA
:1004630018C582C0E0E51934FFC583C0E0E518C3B1
:10047300958224F310AF0885831985821880088537
:100483008319858218D2AFC8F0A3E9F0A3EAF0A3D9
:10049300EBF0A37908E709F0A3D8FAECF0A3EDF0A9
:1004A300A3EEF0A3EFF0A3D0E0F0A3D0E0F0A3D04D
:1004B300E0F0A3E520F0A3E5F0F0A32285198385FE
:1004C3001882E0C0E0A3E0F9A3E0FAA3E0FBA3787D
:1004D30008E0F608A3DFFAE0FCA3E0FDA3E0FEA337
:1004E300E0FFA3E0C0E0A3E0C0E0A3E0F5D0A3E019
:1004F300F520A3E0A3F5F010AF08858319858218D2
:100503008008858319858218D2AFD082D083D0E04A
:10051300F8D0E032120BE5B90003020556E490036C
:1005230001789C791A8002F0A3D8FCD9FA7A9C7BD3
:100533001C90008678F979018015E493A3AD82AE0F
:10054300838A828B83F0A3AA82AB838D828E83D826
:10055300E9D9E77582C97583EF74051208C47582FA
:100563009375832774001208C475F0108E1A8F1BBD
:1005730085821F85831E851882851983E0CEA3E0BB
:10058300CF851F82851E83EBC9EAC8EDCBECCAC3B6
:10059300E833C8E933C9EA33CAEB33CBC3EA9EF580
:1005A3001DEB9FF51CB35004AB1CAA1DEC33CCED23
:1005B30033CDD5F0DAAE1AAF1B22D083D082ECC094
:1005C300E0EDC0E0E493A3FCE493A3FDED4C600DE8
:1005D3001206D9EC24FFFCED34FFFD80EFE493A376
:1005E300FCE493A3FDED4C600D1207ACEC24FFFC7F
:1005F300ED34FFFD80EFD0E0FDD0E0FCE493A3C039
:10060300E0E493C0E022D083D082E9C0E0E493A386
:10061300C386F0C5F095F0F908E493A386F0C5F01E
:1006230095F0700BE493A3C3994005E9048002A3FA
:10063300E475F002A42582F582E5F03583F583D0D5
:10064300E0F9E493A3C0E0E493C0E0228519838535
:100653001882E0A3FEE0A3F5207808E0A3F608DF04
:10066300FAE0A3FFE0A3C0E0E0A3C0E0E0A3C0E0A2
:10067300E0A3C0E0E0A3C0E010AF08858218858343
:10068300198008858218858319D2AFD083D082025E
:1006930008CAC0E074F2120460A2AFE433FED2AF22
:1006A300E589A2E150031226C1758900C2C5EEA2F5
:1006B300E092AF7F010204BFC0E074F2120460A2B3
:1006C300AFE433FED2AFE58BA2E050031226C1752F
:1006D3008B00C2E880D8C0E0C3E49396087401930A
:1006E3009618400FE49366700808740193661870B7
:1006F300007019A3A3C3E49396087401939618A3F7
:10070300A3400DD0E0D0E0D0E00205F9A3A3A3A35A
:10071300A3A3D0E022D083D082C5F0E493A3C5F095
:10072300C395F0F5F0E493A3C395F04005E5F00419
:100733008001E475F002A42582F582E5F03583F5A6
:1007430083E493A3C0E0E493C0E0227404800474C0
:10075300028000CCC0E0EDC0E0E518C39CCCAD192D
:1007630050011D10AF068C188D1980068C188D1939
:10077300D2AF120846D0E0FDD0E0FC227402800024
:10078300CCC0E0EDC0E0E518C39CCCAD1950011D11
:1007930010AF068C188D1980068C188D19D2AF12E4
:1007A3000824D0E0FDD0E0FC22C0E0C0F088F0E4F3
:1007B300936670080874019366187000A8F0A3A3E9
:1007C300700BD0F0D0E0D0E0D0E00205F9A3A3D0C5
:1007D300F0D0E022D083D082CCC0E0E493A36006C3
:1007E3001208861470FAE493A360061209C6147003
:1007F300FAD0E0FCE493A3C0E0E493C0E022C0E0BD
:1008030074F2120460A2AFE433FED2AFC2C0E5D1EA
:10081300A2E45003120C81EEA2E092AF7F01020426
:10082300BFCAC0E0E493A3C582CCC582C583CDC54E
:1008330083F0A3C582CCC582C583CDC583DAE5D059
:10084300E0CA22CAC0E0E0A3C582CCC582C583CD7D
:10085300C583F0A3C582CCC582C583CDC583DAE643
:10086300D0E0CA22C008C3E096F50808A3E0964288
:100873000808A3E096420808A3E09645087001D350
:10088300D00822C0E0E493A3D39C5010E493A3C305
:100893009C400AD0E0D0E0D0E00207F4A3A3A3D0A9
:1008A300E0227009080808226016181818C6C33316
:1008B300C608C633C608C633C608C633C6D5E0EA7B
:1008C30022C09FF59FE473D09F22D083D082C09F24
:1008D300E493C0E0740193C0E0740293F59F227423
:1008E30004800A74038006740280027401C0E0F479
:1008F300041208FDD0E0120B90222518F58210AFE8
:1009030008F518400C15198008F51840021519D27E
:10091300AF8519832200C0D0251810AF08F51850F1
:100923000C05198008F51850020519D2AFD0D02252
:10093300C0E0C0D0E8C0E0A8A8D2AFC2C7E8A2E731
:1009430092AFD0E0F8D0D0D0E032BB0102E722C0B2
:1009530082C08389828A83BB0003E08002E493D050
:1009630083D082226016080808C6C313C618C613AC
:10097300C618C613C618C613C6D5E0EA22C3E0C616
:1009830096F608A3E0C696F608A3E0C696F608A373
:10099300E0C696F6222518F8E43519F9222518FA47
:1009A300E43519FB222518FCE43519FD222518101E
:1009B300AF08F518400C15198008F51840021519F1
:1009C300D2AF22C0E0E493A36C7009D0E0D0E0D0B2
:1009D300E00207F4A3A3D0E022E066701008A3E0CE
:1009E30066700A08A3E066700408A3E06622E7665F
:1009F30070100809E766700A0809E76670040809B9
:100A0300E76622C3E09608A3E09608A3E09608A34E
:100A1300E096A2D265D03322C3E096F008A3E09615
:100A2300F008A3E096F008A3E096F022C3E697F659
:100A33000809E697F60809E697F60809E697F62205
:100A4300C3E493960874019396087402939608740A
:100A530003939622E627F60809E637F60809E637F0
:100A6300F60809E637F622E026F608A3E036F6088C
:100A7300A3E036F608A3E036F622700422600D18D0
:100A8300C6C333C608C633C6D5E0F41822E493F6CA
:100A930008740193F608740293F608740393F6221C
:100AA300E657F60809E657F60809E657F60809E691
:100AB30057F622E056F608A3E056F608A3E056F6EA
:100AC30008A3E056F622E056F008A3E056F008A388
:100AD300E056F008A3E056F022E026F008A3E03643
:100AE300F008A3E036F008A3E036F022E647F60864
:100AF30009E647F60809E647F60809E647F622E459
:100B0300C396F608E496F608E496F608E496F62209
:100B1300600D08C6A2E713C618C613C6D5E0F322B4
:100B2300C6F4C608C6F4C608C6F4C608C6F4C62288
:100B3300C3E7960809E7960809E7960809E79622A6
:100B4300C3E09608A3E09608A3E09608A3E09622E4
:100B530075D00075813F75180175190300020517DB
:100B6300E6F008A3E6F008A3E6F008A3E6F02260A7
:100B73000C08C6C313C618C613C6D5E0F422E0F6A4
:100B830008A3E0F608A3E0F608A3E0F622CAC0E053
:100B9300E6F0A308DAFAD0E0FA22E8F0A3E9F0A33A
:100BA300EAF0A3EBF022E0F8A3E0F9A3E0FAA3E074
:100BB300FB22ECF0A3EDF0A3EEF0A3EFF022E0FCB8
:100BC300A3E0FDA3E0FEA3E0FF22EAF0A3EBF0A382
:100BD300ECF0A3EDF022E0FAA3E0FBA3E0FCA3E03A
:100BE300FD22E5C754F84401F5C77901222518F51C
:100BF30082E43519F58322C2AF75D69F0200002225
:100C03001208CD4BDB051208CDBFDB051208CDD989
:100C1300DB051208CDF0DB051208CD03DC05120855
:100C2300CD1BDC051208CD30DC051208CD51DC05E7
:100C33001208CDA2DC051208CDA4E8051208CDB236
:100C4300E8051208CD2BE9051208CD00EA051208C4
:100C5300CDD2EB051208CDC6FF031208CDB5F704BC
:100C63001208CD22F8041208CDDAF8041208CD5088
:100C7300F9041208CD6AFA041208CDFAFB0412082B
:100C8300CD63FC041208CDB2FC041208CDBBFC04F6
:100C93001208CDCAFC041208CDE0FC041208CDF3FF
:100CA300FC041208CDFCFC041208CD10C005120888
:100CB300CD3CC0051208CDD3C2051208CD13C30520
:100CC3001208CD4FC3051208CD63C3051208CD7CAE
:100CD300C3051208CD6DC4051208CD1FC505120842
:100CE300CD33C5051208CD8781061208CDAB810629
:100CF3001208CDC481061208CD0282061208CD3235
:100D030082061208CD5F82061208CDC5820612083C
:100D1300CDC882061208CDD282061208CDDF820624
:100D23001208CD19FD041208CD39FD041208CD783F
:100D3300FD041208CD96FD041208CDB1FD0412087E
:100D4300CD17FE041208CD23FE041208CD80FE0445
:100D53001208CDA4FE041208CD65FF041208CD725B
:100D6300FF041208CD83FF041208CD6E8C0612080F
:100D7300CD868C061208CDB28C061208CDA6CF05FF
:100D83001208CD00D1051208CD0ED1051208CD21D0
:100D9300D1051208CD36D1051208CD4BD105120865
:100DA300CD5ED1051208CDDAD1051208CD3FD205AB
:100DB3001208CDD5D2051208CDAED3051208CDBE8B
:100DC300D3051208CDCDD3051208CD517F001208EB
:100DD300CD757F001208CD9D7F001208CDC57F0021
:100DE3001208CD78F9051208CD9FF9051208CDBD7B
:100DF300F9051208CD2CFA051208CD817C001208E2
:100E0300CD9A7C001208CDA67C001208CDBA7C00D6
:100E13001208CDD87C001208CDE27C001208CDEC7C
:100E23007C001208CDFF7C001208CD857D001208DE
:100E3300CDFA7D001208CD297E001208CD777E0001
:100E43001208CDC67E001208CDE17E001208CDEB5C
:100E53007E001208CDFC7E001208CD3F7F001208F1
:100E6300CDA88D061208CD89B6051208CDB5B605F5
:100E73001208CDD2B6051208CDE5B6051208CD008D
:100E8300B7051208CD5AB7051208CD88B705120861
:100E9300CD98BB051208CDF6BC051208CD28BD05BB
:100EA3001208CD8BBD051208CD01BF051208CD294F
:100EB300BF051208CD3EBF051208CD4EBF0512086F
:100EC300CD8EBF051208CDD0BF051208CDE0BF05FA
:100ED3001208CDBA86061208CDD486061208CDFCB8
:100EE30086061208CD1587061208CD398706120823
:100EF300CD5787061208CD6E87061208CD9C87064C
:100F03001208CDB787061208CDB1FF041208CD37FA
:100F1300EC051208CD47EC051208CD4EED0512087D
:100F2300CD82ED051208CDA4ED051208CDC7ED0560
:100F33001208CDE5ED051208CD1FEE051208CD848C
:100F4300EE051208CDC6EE051208CD0DEF05120809
:100F5300CD3AEF051208CD71EF051208CD348406A2
:100F63001208CD5284061208CDB484061208CD4E61
:100F730085061208CD11FF051208CDEA870612086F
:100F8300CD3288061208CD63FE011208CDA3FF01FE
:100F93001208CD9897051208CD849B051208CD79C8
:100FA3009D051208CDAB9E051208CD849F0512083E
:100FB300CD1BA1051208CDE7A1051208CD3BA20563
:100FC3001208CD9DFB051208CDBEFB051208CDF11D
:100FD300FC051208CD1BFD051208CD5EF2051208B3
:100FE300CDD3F2051208CDDEF2051208CDFFF205CE
:100FF3001208CD8DF0011208CD20F5011208CD8223
:10100300F6011208CD59F8011208CDE2F8011208D1
:10101300CD79F9011208CD38FA011208CD2CFB0164
:101023001208CD44FC011208CD73FD011208CD60F6
:10103300E6041208CD63E6041208CDEFED041208AE
:10104300CD41EF041208CDA2F0041208CD79F104CA
:101053001208CD52F2041208CD3BF3041208CD2F2F
:10106300F4041208CDE7F4041208CD17F5041208AE
:10107300CDC7F6041208CDF0F4051208CD10F5051E
:101083001208CD23F6051208CD0CF7051208CDE999
:1010930082061208CD1F83061208CD3B8306120871
:1010A300CD7D83061208CD8D83061208CD278406D5
:1010B3001208CD3184061208CDD9AC051208CDE350
:1010C300AC051208CD1DAD051208CD86AD0512087D
:1010D300CDA5AD051208CDBEAD051208CD60AE0598
:1010E3001208CDE8B0051208CDF1B0051208CD42C3
:1010F300B1051208CD6BB1051208CD78B105120800
:10110300CDE9B1051208CD77B2051208CDC5B205F8
:101113001208CDFBB2051208CD5CB3051208CD85CC
:10112300B3051208CDFCB3051208CD58B405120857
:10113300CD95B4051208CDCCB4051208CDDEB405A7
:101143001208CDF0B4051208CD0FB5051208CD185D
:10115300B5051208CDD3B5051208CD1FB605120883
:10116300CD5DB6051208CD6FCA051208CDAFCB050C
:101173001208CDD2CB051208CDE3CB051208CD0260
:10118300CE051208CD22CE051208CD3AF705120876
:10119300CD70F7051208CDB8F7051208CD11F90582
:1011A3001208CD4768001208CD7869001208CDB443
:1011B30069001208CD6E6B001208CD986B001208FF
:1011C300CD116E001208CD516E001208CDE56F00EF
:1011D3001208CD8470001208CDDC70001208CD6FA8
:1011E30071001208CDA971001208CDEB710012082D
:1011F300CD5E73001208CDDE74001208CD1B77009C
:101203001208CD4977001208CD7577001208CD7EFC
:1012130077001208CDD477001208CD647800120845
:10122300CDA27B001208CD247C001208CD7F8E0650
:101233001208CD958E061208CD4B8D061208CDD718
:10124300DC051208CDEDDC051208CD91DD05120891
:10125300CDD0DD051208CDEDDD051208CD1EDE056E
:101263001208CD6BDE051208CD9FDE051208CDDA1C
:10127300DE051208CDCFE0051208CD088A06120854
:10128300CD678A061208CDA58A061208CDE68A061E
:101293001208CD0080041208CD0C80041208CD6E14
:1012A30080041208CD7880041208CD058104120849
:1012B300CD4181041208CDFD81041208CD0A8204B8
:1012C3001208CD6E82041208CDB782041208CD88AD
:1012D30083041208CD0384041208CDC285041208C6
:1012E300CDF587041208CD5B89041208CDBC8A04AE
:1012F3001208CD488B041208CD948C041208CD97A4
:101303008D041208CDF18E041208CDBB930412088C
:10131300CDB294041208CD3695041208CD5B950422
:101323001208CD8095041208CD1996041208CD3702
:1013330096041208CD9D96041208CDB9960412089E
:10134300CDE996041208CDFB97041208CDCE98047C
:101353001208CD4B9A041208CD6C9A041208CDEFF3
:101363009A041208CD959B041208CDDC9B04120845
:10137300CD549C041208CDB19C041208CD3C9D04AD
:101383001208CD949E041208CD04A0041208CD9631
:10139300A0041208CDFCA0041208CD0DA30412086A
:1013A300CDB2A4041208CDC7A4041208CDFFA4042F
:1013B3001208CD6CA5041208CDB0A5041208CD21E6
:1013C300A6041208CDC7A6041208CDB4A8041208B7
:1013D300CD83A9041208CD95AA041208CD43AC0409
:1013E3001208CD69FD051208CD05FE051208CD26AC
:1013F300FE051208CD7985061208CDBD85061208B3
:10140300CD0886061208CDFBF4031208CD2FF50391
:101413001208CD6FF5031208CD04F6031208CD08A8
:10142300F8031208CD6DF9031208CD41FB0312082E
:10143300CDA6FB031208CDE3FB031208CD1EFC036C
:101443001208CD37FC031208CD57FC031208CD5AFE
:10145300FC031208CDA3FC031208CDE0FE0312081F
:10146300CD05FF031208CD70D6031208CDCBD603EA
:101473001208CD5BD7031208CDD4D8031208CDB41C
:10148300D9031208CDA2DA031208CDB9DA03120880
:10149300CD0BDB031208CD7FDB031208CDCBDB03BF
:1014A3001208CDDEDB031208CD37DC031208CDA60C
:1014B300DC031208CDBEDC031208CD86DF0312085D
:1014C300CD1CE0031208CD53E0031208CD9CE003CA
:1014D3001208CD9EE2031208CDEEE2031208CDC836
:1014E300E3031208CD01E4031208CD20E40312083C
:1014F300CD6BE4031208CD8BE4031208CD42E50360
:101503001208CD12E6031208CD1DE6031208CD9191
:10151300E6031208CDECE6031208CD39E7031208FF
:10152300CD44E8031208CDE8EA031208CD1BEB0310
:101533001208CDBDEB031208CDE2EB031208CD6612
:10154300EC031208CD43ED031208CD81ED0312081D
:10155300CDE5ED031208CDA3EE031208CDA6EE03ED
:101563001208CDB0EE031208CDBAEE031208CDD6A1
:10157300EE031208CD52EF031208CD8BEF031208CE
:10158300CDA7EF031208CDD3EF031208CDFAEF0373
:101593001208CD1EF0031208CD59F0031208CDCC6A
:1015A300F0031208CD00F1031208CD41F103120834
:1015B300CD5BF1031208CD82F1031208CDB1F10323
:1015C3001208CDD1F1031208CD0EF2031208CD4556
:1015D300F2031208CD48F3031208CD80F403120876
:1015E300CD9FF4031208CDB6F4031208CDC8F4035B
:1015F3001208CDF38C061208CD0B8D061208CD47C9
:10160300C5051208CD85C5051208CD1EC6051208ED
:10161300CD29C7051208CD71C9051208CDEEC9053C
:101623001208CD31F8021208CD80F8021208CD3E1F
:10163300FA021208CDF8FB021208CD36FC0212089A
:10164300CD63FD021208CD6EFE021208CD90FE029C
:101653001208CDDAFE021208CD5BFF021208CD2E6E
:10166300D8021208CD51D8021208CD5FD902120850
:10167300CDA8D9021208CD08DA021208CD64DA0225
:101683001208CDB5DA021208CD2BDB021208CDAE5B
:10169300DB021208CD23DC021208CD66DC0212083D
:1016A300CD85E0021208CDDEE2021208CD11E3027D
:1016B3001208CD6CE3021208CDB6E6021208CD3B48
:1016C300E7021208CDC5E8021208CDCEE9021208DE
:1016D300CDFEEA021208CD62EB021208CD22EC0223
:1016E3001208CD86EC021208CD89EC021208CD5EF9
:1016F300ED021208CD96EE021208CD5DF00212083B
:10170300CD75F2021208CD77F3021208CD05F4026B
:101713001208CD58F5021208CD90F6021208CDCF6B
:10172300F6021208CD83F7021208CD6EAE0412083A
:10173300CD0EAF041208CD7AAF041208CD95AF04D5
:101743001208CD36B0041208CD7DB0041208CDA422
:10175300B1041208CDE7B1041208CD63B204120834
:10176300CDB6B2041208CD15B3041208CDC3B30429
:101773001208CD7EB6041208CDA8B7041208CD31E5
:10178300B8041208CD14BA041208CDB8BA0412086A
:10179300CD57BB041208CDB8BB041208CD27BC0437
:1017A3001208CD8BBD041208CD6ABE041208CDA564
:1017B300BE041208CDC5BE041208CD76BF041208BC
:1017C300CDB3BF041208CD3CC0041208CDD6C1046A
:1017D3001208CD9CC3041208CD1FC5041208CD9175
:1017E300C6041208CDA0C7041208CD2DC8041208E0
:1017F300CD97C8041208CDAEC9041208CD01CB049D
:101803001208CD6CCB041208CDB4CB041208CDF86A
:10181300CB041208CD53CC041208CDB0CC0412086B
:10182300CDEBCC041208CD6FCD041208CDC9CD0485
:101833001208CD38CF041208CDB0CF041208CDC89A
:10184300D0041208CDF0D0041208CDFCD104120844
:10185300CD0DD2041208CD25D2041208CD4ED304E7
:101863001208CD71D3041208CD4AD4041208CD6EE8
:10187300D4041208CD85D4041208CDA9D4041208C7
:10188300CDCBD4041208CDA5D5041208CDFFD504C1
:101893001208CD79D7041208CDD5D7041208CDECA0
:1018A300D7041208CD1AD8041208CD6CD904120833
:1018B300CDEBD9041208CD22DA041208CD5CDA0488
:1018C3001208CDC8DA041208CD87DB041208CD65EF
:1018D300DD041208CD65DE041208CD70DF041208A2
:1018E300CD82E0041208CDAAE1041208CDB8E104C8
:1018F3001208CDBDE2041208CD5FE3041208CD87C0
:1019030089061208CDBAE3041208CDC2E404120812
:10191300CD63E5041208CDBFE5041208CDCAE40582
:101923001208CD85E6051208CD44E7051208CD99C6
:10193300E7051208CD1FE8051208CDDCE005120803
:10194300CDFAE0051208CD3EE1051208CD64E105AC
:101953001208CD8BE1051208CDA3E1051208CDBB1A
:10196300E1051208CDD3E1051208CD5FDA051208AF
:10197300CDB7E2051208CDCCE2051208CDEEE305A2
:101983001208CDF7E3051208CD00E4051208CD09CE
:10199300E4051208CD13E4051208CDFED3051208A1
:1019A300CDF2D7051208CD00D8051208CD05D8050C
:1019B3001208CDEBF0051208CD2A8E061208CDF3DE
:1019C3008D061208CD568E061208CD9F8E0612087C
:1019D300CD0080021208CD5780021208CDC38002C9
:1019E3001208CD4F81021208CD0582021208CD4D97
:1019F30082021208CD6682021208CD898202120881
:101A0300CDAB82021208CDE982021208CD388302DF
:101A13001208CD6383021208CDC183021208CD6878
:101A230084021208CD1085021208CD8C850212089B
:101A3300CD5986021208CDA086021208CDEC86028B
:101A43001208CD7487021208CDAD87021208CD03A8
:101A530088021208CD1F88021208CD4E8802120890
:101A6300CD5A8A021208CD888B021208CDB48B029C
:101A73001208CDE88B021208CD098C021208CD188A
:101A83008C021208CD238C021208CDD28C021208CC
:101A9300CD428D021208CDCD8D021208CDD58D0217
:101AA3001208CD428E021208CD7E8E021208CD445A
:101AB3008F021208CD1790021208CD6C9002120803
:101AC300CD0B91021208CD6591021208CDAA9102A5
:101AD3001208CD4394021208CD8695021208CD70E8
:101AE30098021208CD5499021208CD389A021208AE
:101AF300CD499A021208CDBB9A021208CD529B021D
:101B03001208CDB79B021208CDA79C021208CDCCB8
:101B13009C021208CDEA9C021208CD069D0212080F
:101B2300CD799D021208CD889D021208CD109E0228
:101B33001208CD0D9F021208CD1A9F021208CD2361
:101B43009F021208CD05A1021208CD27A202120896
:101B5300CD37A2021208CD65A3021208CDE4A30279
:101B63001208CDFFA4021208CD3BA5021208CD1521
:101B7300A7021208CDD2AA021208CDE6AA021208C1
:101B8300CDF0AA021208CDFAAA021208CD04AB02C4
:101B93001208CD1DAB021208CD27AB021208CD945B
:101BA300AB021208CD9FAB021208CDC7AB021208DD
:101BB300CDD2AB021208CD37AC021208CD42AC0233
:101BC3001208CD66AC021208CD8AAC021208CDFC15
:101BD300AC021208CD45AD021208CD61AD02120868
:101BE300CDD2AD021208CD1EAE021208CD67AE02F1
:101BF3001208CDA5AE021208CD26AF021208CDCD34
:101C0300AF021208CD9CB1021208CD01B202120834
:101C1300CD2FB3021208CD55B3021208CD9DB402E5
:101C23001208CDD7B7021208CDD5B9021208CDA03C
:101C3300BB021208CD39BC021208CD3ABE0212080B
:101C4300CDEFBE021208CD28BF021208CD8EBF020F
:101C53001208CD98BF021208CDC1C1021208CD00EF
:101C6300C3021208CD57C3021208CD02C4021208E0
:101C7300CDB2C5021208CDFFC6021208CD1FC7029E
:101C83001208CD74C7021208CD75C8021208CD9D83
:101C9300C8021208CDFCC8021208CDF4C90212080A
:101CA300CD6BCA021208CD7ECB021208CDECCB025B
:101CB3001208CDEBCC021208CD45CF021208CD6E2F
:101CC300CF021208CDD4D0021208CD56D202120888
:101CD300CDADD2021208CD5BD3021208CD00D402DF
:101CE3001208CD59D4021208CD17D5021208CDA976
:101CF300D5021208CD08D6021208CD4AD602120820
:101D0300CD7BD6021208CDD2D7021208CD008003B4
:101D13001208CD3280031208CD6B80031208CD293F
:101D230082031208CDFF82031208CD5E83031208DB
:101D3300CD7484031208CDC084031208CD4E8703EB
:101D43001208CD288A031208CD6F8B031208CD0722
:101D53008C031208CD138C031208CD5C8C0312087C
:101D6300CD9E8D031208CD948E031208CDBE8E0333
:101D73001208CD148F031208CD6D8F031208CDE026
:101D83008F031208CD1692031208CD9893031208FD
:101D9300CD8394031208CDCD95031208CD05980386
:101DA3001208CD029B031208CD119B031208CDA587
:101DB3009B031208CD509C031208CD939C03120879
:101DC300CDFB9C031208CD179D031208CD469D033E
:101DD3001208CD859D031208CD809E031208CD2FD6
:101DE3009F031208CDACA1031208CDDEA203120893
:101DF300CDB6A3031208CD38A4031208CD6DA803F2
:101E03001208CD9CA8031208CDF7A8031208CD2A07
:101E1300A9031208CDA2A9031208CDD5A90312085C
:101E2300CD36AA031208CD86AA031208CD53AB03FD
:101E33001208CD0CAC031208CDD0AC031208CD4A66
:101E4300AF031208CDACB0031208CDFDB1031208E5
:101E5300CD21B3031208CD24B3031208CD53B3032A
:101E63001208CD4BB5031208CD0AB6031208CD39BB
:101E7300B6031208CD57B7031208CD1FB8031208D3
:101E8300CDDDB9031208CD0FBA031208CD51BA0341
:101E93001208CD50BB031208CDC3BB031208CDEC0F
:101EA300BD031208CD4BBE031208CD9FBE0312081B
:101EB300CDCEC0031208CDB1C1031208CD39C20380
:101EC3001208CD27C3031208CD3BC3031208CD4F1D
:101ED300C3031208CD7CC3031208CDACC30312089D
:101EE300CD67C5031208CD79C6031208CDCEC6034C
:101EF3001208CD17C7031208CD3EC7031208CD063B
:101F0300C8031208CDACC8031208CD32CA031208A5
:101F1300CD79CA031208CDEBCA031208CD40CC0316
:101F23001208CDE9CC031208CD1DCD031208CD351F
:101F3300CD031208CDD8CD031208CD54D003120817
:101F4300CDFCD1031208CD1AD2031208CD38D20327
:101F53001208CD04D3031208CD52D6031208CDC9FB
:101F630082011208CD0183011208CDF58701120801
:101F7300CD4188011208CD8788011208CDBD8901A2
:101F83001208CD228A011208CD978B011208CDA128
:101F93008E011208CDCA8F011208CDDD99011208F6
:101FA300CD6D9A011208CD579D011208CD649E0193
:101FB3001208CDC79E011208CD0FA0011208CD7DD6
:101FC300A2011208CD0FA4011208CD9CA40112088E
:101FD300CDBBA5011208CD48A6011208CD52A6011A
:101FE3001208CD7AA6011208CD1AA7011208CD0551
:101FF300A8011208CDD2A8011208CDEFA80112083A
:10200300CD18A9011208CD45A9011208CD8CAB0149
:102013001208CD5BAC011208CD9AAC011208CD1C9D
:10202300AD011208CDBDAD011208CDEFAD0112080F
:10203300CD36AE011208CD69AE011208CDADAE01A9
:102043001208CDFCAE011208CD01AF011208CD5D1F
:10205300AF011208CDA1AF011208CD7BB001120868
:10206300CDE0B0011208CD46B1011208CDC1B101D6
:102073001208CD29B5011208CD2CB6011208CDAA3C
:10208300B7011208CDC0BA011208CD62BB01120814
:10209300CDABBD011208CD66BE011208CDA5BE01B0
:1020A3001208CD7DC0011208CD9AC0011208CDA33C
:1020B300C0011208CDACC0011208CDB7C00112088F
:1020C300CDD6C0011208CD7AC2011208CDD7C20104
:1020D3001208CDE1C2011208CDEBC2011208CD4AAC
:1020E300C3011208CD94C3011208CD95C40112088F
:1020F300CDECC4011208CDFDC5011208CD46C601C1
:102103001208CD00C7011208CD17C8011208CDEC83
:10211300C8011208CD33CA011208CD37CB0112080A
:10212300CD30CC011208CD48CC011208CD7FCC01B3
:102133001208CD89CC011208CD93CC011208CD9E93
:10214300CC011208CDBCCC011208CD04CD0112087C
:10215300CD62CD011208CD89CD011208CD9BCD01F1
:102163001208CD50CE011208CD89CE011208CDAB95
:10217300CF011208CDFECF011208CDE4D001120821
:10218300CD0BD1011208CD7BD1011208CDF7D101BE
:102193001208CD53D3011208CD7AD4011208CD3CD5
:1021A300D5011208CD0AD6011208CDC8D6011208EE
:1021B300CDB0D7011208CD5AD8011208CDC2D8012B
:1021C3001208CD77D9011208CDD3D9011208CD2B2E
:1021D300DA011208CDF1DA011208CD14DB0112087D
:1021E300CDCFDB011208CDF1DB011208CD52DC01AA
:1021F3001208CD82DE011208CD7BDF011208CD2744
:10220300E0011208CD48E2011208CD91E201120863
:10221300CDDCE2011208CD38E3011208CD96E301CB
:102223001208CDBAE3011208CDDEE3011208CD1383
:10223300E4011208CD3BE4011208CD80E401120849
:10224300CDD4E4011208CD2DE5011208CD27E60116
:102253001208CDC5E7011208CD0AE8011208CD33F3
:10226300E8011208CDBCE8011208CD2FE9011208DC
:10227300CD3DE9011208CD61E9011208CDB7E901AD
:102283001208CDD2E9011208CD8DEA011208CDB9A9
:10229300EA011208CDFCEA011208CD5FEB01120836
:1022A300CD6DED011208CD99ED011208CD54EE016B
:1022B3001208CD38EF011208CDCCEF011208CD5929
:1022C300A2051208CD91A2051208CDB2A2051208EB
:1022D300CDF4A2051208CD58A3051208CD62A305BB
:1022E3001208CD72A3051208CDA9A3051208CD5279
:1022F300A7051208CD1AA9051208CDFEAA051208D2
:10230300CDA0AB051208CD2AAC051208CD852E0051
:102313001208CD2E2F001208CD0D30001208CD1952
:1023230031001208CD3931001208CD5B320012089A
:10233300CD0B34001208CD7834001208CD49350096
:102343001208CD4F36001208CDC736001208CD0251
:1023530037001208CD5B37001208CD9637001208FC
:10236300CDDF37001208CD7338001208CD093900CC
:102373001208CDDE39001208CDB13A001208CD3F64
:102383003B001208CD653B001208CD923B001208BA
:10239300CDC33B001208CD903C001208CDA03C00F9
:1023A3001208CDF33C001208CD003D001208CD0DFC
:1023B3003D001208CD163D001208CD7A3D001208EB
:1023C300CDD83D001208CD233E001208CD3E3E007D
:1023D3001208CD653E001208CD823E001208CD8E54
:1023E3003E001208CD1F40001208CD3840001208ED
:1023F300CDB440001208CDC740001208CDD740002D
:102403001208CD7B41001208CDE742001208CDFA35
:1024130043001208CD9A44001208CDA444001208C8
:10242300CD2345001208CD3445001208CD73450075
:102433001208CDA145001208CD6E46001208CDC585
:1024430046001208CDFE46001208CD54470012087C
:10245300CD7247001208CDC047001208CD8B48004B
:102463001208CDD948001208CD2649001208CDA97B
:1024730049001208CDD349001208CD094A001208B9
:10248300CD184A001208CD774A001208CDEF4A0052
:102493001208CD304B001208CD804B001208CDAB93
:1024A3004B001208CDC54B001208CDDF4B001208BC
:1024B300CDB44C001208CDBE4C001208CDF94C002F
:1024C3001208CD094D001208CD124D001208CD633C
:1024D3004D001208CD774D001208CD994E00120819
:1024E300CDAE4E001208CD414F001208CDB54F00BE
:1024F3001208CD5A50001208CD6550001208CDC8FD
:1025030051001208CDE451001208CD3052001208D8
:10251300CD9E52001208CDD052001208CDEA5200CF
:102523001208CD4A53001208CDE953001208CD34E6
:1025330054001208CD8756001208CD1F5700120809
:10254300CD9657001208CDF359001208CD0B5A004F
:102553001208CD0E5A001208CD1A5A001208CD2EB9
:102563005A001208CD365A001208CD6D5A001208CF
:10257300CD615B001208CDEB5B001208CD6D5C00F2
:102583001208CDED5C001208CDC45D001208CDE643
:102593005D001208CD7F5E001208CDDC5E001208DC
:1025A300CDDF5E001208CD4E5F001208CD9A6000A9
:1025B3001208CDAD61001208CD3862001208CD4B70
:1025C30063001208CD1264001208CD4364001208A0
:1025D300CD6964001208CD7264001208CDA16400B5
:1025E3001208CD5165001208CD0166001208CD74A2
:1025F30066001208CD1767001208CD8A670012081B
:10260300CDC967001208CD1268001208CD038906F0
:102613001208CD648C061208CDFC8B061208CDE19E
:102623008B061208CDD18B061208CDEA7F00120863
:10263300CDFAFF011208CDB78B061208CD198B0610
:102643001208CD088B061208CD8BFF021208CDF6B7
:102653008B051208CD1A8B051208CD388A0512088E
:10266300CD9788051208CD5688051208CD2D88050B
:102673001208CDE187051208CD5087051208CDC099
:1026830086051208CD9E86051208CD4686051208DA
:10269300CD0286051208CD8F85051208CDEAD9052E
:1026A3001208CD2A85051208CDD0D9051208CD9878
:1026B300D9051208CD81D8051208CD6CD8051208AA
:1026C300CD4881061208CDEF80061208CDA78006FB
:1026D3001208CD8880061208CDD984051208CD00D2
:1026E30084051208CD7083051208CD2483051208D2
:1026F300CD2280061208CD9F82051208CD5A82058D
:102703001208CD3E82051208CDDD80051208CD00EA
:1027130080061208CDAF80051208CD75E2051208B8
:10272300CD7C80051208CD0080051208CD4D97059C
:102733001208CDEB96051208CDB696051208CD8387
:1027430096051208CD5B96051208CDF19505120882
:10275300CDD395051208CDA495051208CD6B92052E
:102763001208CD5890051208CD5B8E051208CDDBFB
:102773008D051208CD898D051208CDEF8906120843
:10278300CD3D8D051208CDD08C051208CDA5E304EF
:1027930000000080FBE47387000100721D35000414
:1027A30000371D250002003B1D260002003D1D27AA
:1027B3000002003F1D28000100491D290001004AB5
:1027C3001D840004004B1D860001004F1D2A0001DB
:1027D30000501D2B000100511D2C000100551D2D23
:1027E300000800521A2E000100561D2F0001005749
:1027F3001D30000100581D31000100591D32000138
:10280300005A1A330001005B1A340001005A1D36C6
:102813000001005C1A380001005B1D3900010054FF
:102823001D83000200701D63000100681A6400012B
:1028330000521D65000100531D6D000100691A71EE
:102843000008004A1A660001006F1D430001006082
:102853001D44000200611D45000100631D46000286
:1028630000641D47000800601A48000100661D4B04
:10287300000100671D04000100731DA10001007623
:102883001D37000100751D88000100741D3C000107
:10289300005D1A3D0001005C1D49000200681D67D0
:1028A3000001006A1A4D0002006A1D4E0001006C0F
:1028B3001D4F0002006D1D3E0001005F1A51000113
:1028C300005D1D520001005E1D530001005F1D5499
:1028D3000001005E1A00000000000000013636010E
:1028E30001000102010001030100010401060605C4
:1028F300020000070100340801000F090401010D63
:102903000100FF0E08000017020000190100FF1A62
:102913000100011B0100FE1C0100081D0200001F35
:1029230001000120010001210200002301000F2406
:102933000200002601000127010008280200FF2AE7
:102943000100072B0102402C0100002D0100012E84
:102953000100012F0100FF30010B1D310800003A77
:102963000100083B01000F3C0100013D0100FF3E57
:1029730004000042040000460400004A0400004E24
:1029830004000052040000560400005A0400000131
:102993000371030103010301030103010322030282
:1029A30003010310030003000300030003000300FB
:1029B300030003420300032403060300030003048C
:1029C3000312032503230325032303040304030042
:1029D3000300030003440300030003230300036510
:1029E30003210035038103000305030003000300F3
:1029F3000300032503230303027102300160021164
:102A03000270020102020202028002100261023A13
:102A13000041006302730272026202430200021366
:102A23000238000002000204021202000200020047
:102A330002000204020402370037003C0244020091
:102A43000239000002000265020002350281020021
:102A530002050282028302000201017101010101E8
:102A63000111010101310101010101800110016125
:102A7300013B001400630173017201620143010011
:102A830001130106013D013500040112010001009B
:102A9300010001000104010401330133013C01443D
:102AA300013201360000010001650100013500819A
:102AB300010001050182018301000103007100305F
:102AC30001600011007000310220035004800010E7
:102AD3000061000000140063007300720062004391
:102AE30000000013000600000000000400120000B4
:102AF3000000000000000004000400370037003C21
:102B030002440000000000000000006500000035E2
:102B13000081000000050000008300000003047131
:102B23000402046004110470040204020401040298
:102B33000410046104000414046304730472046243
:102B430004430400041304060400040004040412F0
:102B530004000400040004000451046400000400A1
:102B63000400044404000400040004000465040099
:102B7300043504810464000504000483040004365E
:102B8300000100060000000F00000000000000002C
:102B9300000000000003FFFF00000403FFFF00002C
:102BA300FFFF0FF4010005C4040320000100000B24
:102BB300000000000000000003010F0000000000FF
:102BC3000000000000000000000000000000000002
:102BD300000000000000000000000000007713C5A3
:102BE300137D13B11200000000000000000000007C
:102BF30000000000008313B1128913B1128F13B1C7
:102C0300129513B1129B13B112A113B112A713CBD7
:102C130013AD13B11200000000000000000000001B
:102C230000B313DD13B913B112B313DD13B913B129
:102C330012A713CB13BF13B11200006D171300F5C6
:102C4300161F00FB161F80011701006D1702007D80
:102C530016030083160400891605008F1606009BD1
:102C6300163000B9163100B3163200C5163300CB47
:102C7300163500D1163400D7163600DD161100E9DB
:102C8300161400EF161500AD16FFFF000000000339
:102C9300002001C682000000002001C7820000045A
:102CA3000042014B800000050042016D80000006D8
:102CB3000042017E80000007002001C8820000104E
:102CC300004203071D000011002003CA1800001270
:102CD300001003181D060000001001CD180A0000A3
:102CE30000020000000400000008000000100000C3
:102CF30000200000004000000080000000000100F0
:102D030000000200000004000000080000001000A2
:102D130000002000000040000001A11F06CB1F0897
:102D2300C51F0BE31F10BF1C02A71F05B91F07AD6B
:102D33001F0C891F0D951F64BB1AFF000007ECFDD4
:102D4300FDFDECDCDCCCBCACAC9C9C8C7C7C6C6C6E
:102D53005C5C5C4C4C3C3C2C2C1C1C03EAF5E5D520
:102D6300D5C5B5A595958585757565655555454550
:102D73003535252515150500160F00000B150B021B
:102D83000002220F3300000E5A6967426565416CE9
:102D93006C69616E6365303901030507090B0D0F1B
:102DA30000020406080A0C0D0000000406000004DB
:102DB300060001040600020400034A49434E181AA0
:102DC30025050200393D3F373C3C362C442D00019C
:102DD3001916181616182303003030171819213046
:102DE3001B1D1F30303016181920231A1C1E300CDF
:102DF3000E020B040B0A0708000F02040201010173
:102E0300010902E803000000BE040A00007F000E6F
:102E130000E80300000905040400100803030A1E68
:102E23000C0A10080C281EFF000903010C050815E5
:102E33000404E0041236B5A2E792AF22E4F0A3F053
:102E4300A3F022A3122E3FA3F0227F0C02064FE031
:102E5300F508E4F509F50AF50B227401F090059BDA
:102E6300E0640F2274091209187F0402064FA3A31A
:102E7300E024F5C39413229005BB1259AE7A147B58
:102E83000022C082C083901B84746DF0A37423F06E
:102E9300A3747FF0A37423F0901B887455F0A3747C
:102EA30023F0A3744FF0A37423F0A3748BF0A374E3
:102EB30023F0A37491F0A37423F0A37485F0A37497
:102EC30023F0A3743DF0A37423F0901B947461F07A
:102ED300A37423F0A37467F0A37423F0A3745BF0CB
:102EE300A37423F0A37497F0A37423F0901BA5128B
:102EF3004F3B60061251A512119D901BA212465E14
:102F03007408F0A3E4F0A3F0901C45F0901BA7F025
:102F13007C0BFDF97AA87B1B1210CB7C0B7D00790F
:102F2300007AB37B1B1210CB02466774F71203F4CB
:102F330074F71209B0EAFEEBFF1244857405122FF1
:102F4300FB7403F0EE2402FAE43F122FD5242DFC88
:102F5300E43FFD8C828D83123113122FE46008123B
:102F6300385D74FFF0A3F0EE242BE43F1C1CFD8CB2
:102F7300828D83A3E0C0E08A828B83124496D0E0E3
:102F8300122FE488828983124C8E240312577812FD
:102F9300128D7408120BF07403F09005B0120752EF
:102FA30074021209A87903EEFAEFFB12252F7402BB
:102FB300120918E9F5087007EEFAEFFB12240FA9BE
:102FC30008740902386DF582E43FF5831263E31256
:102FD3004C83FB8A828B83122FF3E8F0A3E9F0EE94
:102FE300221259CC122FF3E8F0A3E9125F48E02232
:102FF3001230DE8A828B8322F0A3E4F012300322A4
:10300300EE240DF582E43FF5832274F11203F4EA12
:10301300FEEBFF8C088D09890A1230E88A828B83C4
:103023001230DE740F120BF0123101E824FF18E99D
:1030330034FFF988828983E50A1230F39005B512CB
:1030430030F09005B41230F07411120BF01231010C
:10305300EE2404FCE43FFD880B8A828B83E0F50CAD
:103063008C828D83E0250CC3950B1259C8E8F0A31D
:10307300E91243F2A3A3A3A3A3A3A3A3E06403704E
:103083000812474EF0A3E480031233F4122FFE74A8
:1030930009F0750CA8750D1B750E00780C1208E667
:1030A3001233E81210BF7403120918750CFF750D63
:1030B300FF780C1208EAAC08AD097903EEFAEFFBCE
:1030C30012252F7402120918E9F5087007EEFAEFBA
:1030D300FB12240FA9087F0702064FE024FFF8A381
:1030E300E034FFF922EE2402FAE43FFB221231130B
:1030F3001230F722F0E824FF18E934FFF922E0F553
:103103000CA31231131230F788828983E50CF02265
:10311300E08882898322C082C083901BC4E0C39469
:1031230008400474078001E08A828B83F0333333D1
:1031330054F8F902466774F01203F4EAFEEBFF89D0
:103143000C8C0E8D0F750A00A2AFE433F50BC2AFE2
:10315300901BBE803F12322150371232326403700B
:1031630030EE24F9FEEF34FFFF850882850983A33F
:10317300A3E02405FCA3E03400FDEEFAEFFB1212FA
:103183008DEE24FF1EEF34FFFF7410250AF50A1598
:103193000C1243BF1263DFE50C6006E508450970B6
:1031A300B4E50BA2E092AFA2AFE433F50BC2AF904C
:1031B3001BBE802C2402FAE43509FB8A828B83121E
:1031C30059B72406F582E438F58312323F8A828B9D
:1031D30083123227A3A312323F050A150C1243BFF1
:1031E3001243D46022123232640270F1123221E5AA
:1031F3000840C1123522A2E550E3850E82850F8374
:103203007401F0E50C70D6E50BA2E092AF8E828FCD
:1032130083E50AF0EE24FFFAEF34FFFB8035123525
:103223002DA2E62212322B22125DACA3A3A3228588
:103233000882850983125DA61253E022E08E828FF5
:1032430083F0EE24FF1EEF34FFFF221225FB7404EC
:103253001209187F0802064F74EC1203F474F51276
:1032630009B089138A128B0F851882851983E4F0BC
:10327300041209A012231FE9F890059AE0292434C7
:10328300F508FA7B001210E98A0A8B0BAE0AAF0B22
:10329300EE4F70030233DCEE2402F50AE43FF50B34
:1032A300A808EE28F8E43FF9850A82850B83122FDC
:1032B300DD2404F510E43FF511851082F583E4F075
:1032C30090059AE0FCF8C3E498F895E0F9850A8242
:1032D300850B83E028F508A3E039F50990059812DA
:1032E3005670750E00780C1208E67D00AA08AB092B
:1032F3001210BF7403120918AC18AD197401120B24
:10330300F0E0F9E50824FFFAE50934FFFB12232571
:103313008A828B83E4F0EA24FFF508EB34FFF50996
:10332300E50FC454F0F9901C46E0C4333354C0F89D
:10333300900594E0A2E0E43313134849440F123399
:10334300FCE512C454F04513850882850983F0A86F
:1033530008850A82850B83E0FA851082851183E054
:103363002AC398F0850A82850B83E8F0A3E509F068
:103373001233F4122FFEE4F0740A120BF0E4F0752A
:1033830008B375091BF50A78081208E61233E81228
:1033930010BF7403120918851882851983E0600928
:1033A300EE240E12451B4408F0122517E9F9E4F543
:1033B30008F50978081208EA74041209A8EEFAEF6E
:1033C300FB12252F7402120918E97006EEFAEFFBBF
:1033D300800BEEFAEFFB1210EF7A007B00740B12F6
:1033E3000918022E4D7C0B7D00EE2418FAE43FFBF6
:1033F30022124489E4F0A322E0850882850983121E
:10340300340622F01256442274F31203F48A0A8B10
:103413000BA2AFE433F50CC2AF7508007509009039
:103423001BBE802C1236495024850A82850B83A348
:10343300A312680C8E828F83A3A31251A812251D99
:10344300E9600A12346FC2E6F08E088F0912363E25
:103453001238F770CFE50845096006123529D2E620
:10346300F0E50CA2E092AF7F0502064F12347322FF
:1034730012565DE02274F01203F4EAFEEBFF8C0CAB
:103483008D0D750E00A2AFE433F50FC2AF750800C2
:10349300750900901BBE8020850A08850B0912352B
:1034A30029D2E4F0E508123522D2E7F0E50A24FB3D
:1034B300F582E50B34FFF583E0F50AA3E0F50BE5B0
:1034C3000A450B6043E50A1242AA350BF583E0A2D5
:1034D300E750D9850A82850B83A3A3120752AC0C4C
:1034E300AD0DEEFAEFFB1225237402120918E96001
:1034F300BBE508450960A1E508240D1235356401D3
:10350300700612353ED2E4F0E50FA2E092AFE50873
:1035130045096006122409750E01A90E02325612DE
:1035230042D41235382212352D22E50824111235E2
:103533003522F582E43509F583E022850882850981
:1035430083125DA6E02274F21203F474FE1209B032
:10355300750C00750D00851882851983E4F0A3F0BE
:10356300A2AF33F50AC2AF901BBEE0FEA3E0FF801B
:1035730035EE24FBF582EF34FF1263DD780C12087D
:10358300EAEEFCEFFD7ABE7B1B12111F74021209D7
:1035930018EEFCEFFDAA18AB1912110DAE08AF0916
:1035A300901BC4E014F0EE4F6027123649501DEE15
:1035B300240BF8E43FF988828983E024FFF0A3E039
:1035C30034FFF088828983124F3B60A512363A801C
:1035D30099E50AA2E092AF901BC4E0603190059B8D
:1035E300E0640F6006901C45E070237A9C7B1B12FD
:1035F30026079082BA12074E7A9C7B1B1225FB7416
:1036030004120918800874F01248851223FDAA18C1
:10361300AB191211138A0A8B0BAE0AAF0BEE4F6074
:103623001312233112346FA2E28E828F83A350D6FA
:1036330074E980D40238FF8E0C8F0DEE24FBF582E3
:10364300EF34FFF58322123473A2E72274F71203D7
:10365300F4EAFEEBFF122331124493122798E96434
:10366300019005B7700AE02401F8A3E03400800458
:10367300E0F8A3E0F9124AE1124E93901BC4E07004
:103683002190059BE0640F70197A9C7B1B1226071F
:103693009082BA12074E7A9C7B1B1225FB7404128C
:1036A3000918A9A8C2AF901BC4E0041236B5A2E75B
:1036B300800DF0E9A2E7E433F8E922E508A2E092FD
:1036C300AF02492174F71203F4EAFEEBFF1236FC52
:1036D300F0122331EEFCEFFD7ABE7B1B121119A908
:1036E300A8C2AF901BC4122E3590059BE0640F70E7
:1036F3000579081224CF024921123473C2E42274DB
:10370300F71203F474EA1209B0EAFEEBFF90059492
:10371300E060408518828519837401F0120BF0E490
:103723001237D4120BF0AA82AB8312128D8E828FC2
:1037330083123544C0E0740A120BF0D0E01259DD55
:10374300740B120BF0AA82AB83122547AA18AB198C
:1037530012199B741602386D74F71203F4EAFEEB28
:10376300FF122313E9F974DC69601E74DD696019C3
:1037730074E469601474F369600F74DE69600A7439
:10378300DF69600574DB697007EEFAEFFB1224D57D
:1037930002492174F71203F474EB1209B0EAFEEB49
:1037A300FF85188285198374061237D4120BF0AA89
:1037B30082AB8312128D1259E2740A120BF0AA82A1
:1037C300AB83122547AA18AB1912199B741502383B
:1037D3006DF0EE2413FCE43FFD74022274F7120330
:1037E300F474F71209B0EAFEEBFFEE242D12451B29
:1037F30060651240ACAA18AB1912128D7408120B33
:10380300F07403F09005B012075212385D1207529C
:103813009005C3E0F974041209A8EEFAEFFB122332
:10382300197404120918E9F974DC69602374DD69F9
:10383300601E74E469601974F369601474DE69606E
:103843000F74DF69600A74E869600574DB697007E7
:10385300EEFAEFFB1224D5022FC4EE1238622224B3
:103863002BF582E43FF583227403120918024921E0
:1038730074F21203F48A088B09750C00750D007538
:103883000AE7A2AFE433F50BC2AF901BBE8003126D
:10389300363A1238F7603512364950F31245186438
:1038A3000170ECEE242FF582E43F123AA6E0687033
:1038B300DE780C1208EAEEFCEFFD7ABE7B1B1211D8
:1038C3001F7402120918901BC4E014F0E50BA2E068
:1038D30092AFEE4F6013EEFAEFFB12233179F0EE65
:1038E300FAEFFB1224D5750A00A90AAA08AB09123C
:1038F30024D5800DE0FEA3E0FFEE4F2274021209EF
:10390300187F0602064F74F41203F474F71209B019
:10391300EAFEEBFF8E828F83A3E064F37003023928
:10392300B38E828F83A3E064DF70030239B38E8288
:103933008F83A3E064E860788E828F83A3E064DBE7
:10394300606E122373E9F508705EEE240E12451BB8
:1039530060561239BD1223BBEA4B604C7408120B3C
:10396300F01239C71207527508FF7509FF7808125C
:1039730008EA8E828F83A3A3A3A3A3A3A3A3E0F93F
:1039830074041209A81223197404120918E9F5081A
:1039930074F36508601274DF6508600C74E86508E9
:1039A300600674DB6508700F8E828F83A3E508F0D1
:1039B300EEFAEFFB12237F022E67EE240FFAE43FA9
:1039C300FB79092274021261A574FFF0A31239D4A2
:1039D300221239D822124C97A3A32274F51203F4AE
:1039E3008A088B097E008A828B83A3A3A3A3A3A344
:1039F300122E7140027EE88A828B83A3A3A3A3A322
:103A0300A3A3A3A3A3E0C3941040047EE880138A76
:103A1300828B83A3A3A3A3A3A3A3A3A3A3E0640F62
:103A2300600A901C22E0540870027EE8EA240BF539
:103A330082E43509123AA6A3A3A3A3A3A3A3A3E0F5
:103A4300C398500CEA240B123535640F60027EE8EC
:103A53009005B4E0F47003A3E0F470027EEC7A23E3
:103A63007B00121197901BA51251B8901BA5124F02
:103A73003B6029850882850983A3A3A982AA838938
:103A8300088A09750A0078081208E67C237D00126B
:103A930051A51210BF740312091880027E1AEEF9A1
:103AA300026346F583E0F88A828B83A3A32274F52D
:103AB3001203F4EAFEEBFF8E828F83A3A3A3A3A3D7
:103AC300A3A3A3E090059B1260889005B612606ED5
:103AD30090059612608D901C46F0F9120E0D901C05
:103AE30046E06018EE2404FAE43FFB7950120DF52A
:103AF300EE2406FAE43FFB79E1120DF5901C451222
:103B03002E5D6004740180027400901BA712607420
:103B13001208E67C0B7D007AA87B1B1210BF74038E
:103B2300120918EE2418F508E43FF509780812087D
:103B3300E67C0B7D007AB37B1B02633E74F71203B2
:103B4300F4EAFEEBFF8E828F83A3E070061251A589
:103B53001223798E828F83742C1248851224E102FA
:103B6300492174F71203F4EAFEEBFF901BA5124FF1
:103B73003B600D1251A5901BA5E4F0A3F012119D1B
:103B83008E828F83740812488512199B024921740F
:103B9300F61203F4901C45E06013901BA7E0700D30
:103BA300123BB312232BEA4B600312240F025CE88F
:103BB300900596E0FB9005B6E0FA90059BE0F922AC
:103BC30074F41203F474E71209B0EAFEEBFF750B09
:103BD300018E828F83A3A3A3A3A3A3A3E0A2E25096
:103BE30068EE242BF582E43F12680A123C8112230B
:103BF30037E9705590820DE064017005750B008004
:103C030048123C891208E67C0B7D0074111209A04E
:103C13001210BF7403120918122517E9FA740E1251
:103C230009988808890978081208EA75083075091F
:103C33000078081208EA12385D12075212597E7989
:103C430001122535740612091885188285198374A3
:103C5300101237D4120BF0AA82AB831212811238DE
:103C63005D1259AA740B120BF0124E93740D120BC2
:103C7300F0E50B1246F812199B7419022E69EE2413
:103C830013FAE43FFB22EE240812607C22C082C0B8
:103C930083901C46E06003122589024667C082C0F8
:103CA30083901C3D7484F0A3741BF0A37488F0A369
:103CB300741BF0A37494F0A3741BF0901D8A7420FA
:103CC300F0A3742BF0901C27740DF0A37423F090D1
:103CD3001BC97443F0A37423F0901BCB7449F0A366
:103CE3007423F0901C22E044028001E4F002466752
:103CF300C082C083EAFCEBFD7903024D03C082C09E
:103D030083EAFCEBFD7905024D03C082C083790889
:103D1300025E79C082C08374FE1209B0901BD17415
:103D2300F7F0A37423F0901BD374F1F0A37423F082
:103D3300800D7ABE7B1B1211131246EE12250590DD
:103D43001BBE124F3B70EB901BC0124F3B600F7AB0
:103D5300C07B1B1211131246EE12250580E9901B3E
:103D6300BEE4F0A3F0901BC4122E407402800274D0
:103D73001112091802466774F61203F4E9FF74C6B8
:103D830029F582E4342DF583E493FEFA7B001210C7
:103D9300E9EA4B6011EA2E124E898A828B83A3A330
:103DA300A3A3E4F0802C7A027B001210E9EA4B60B3
:103DB3001D74DC2FF582E4342DF583E4938A828B22
:103DC30083F0A3741AF0901C1DE0F91210F57A0029
:103DD3007B00025CE8E9FC740629F8EAA2E0501EC5
:103DE300E875F00A84E5F0F96014740A28C399F8B9
:103DF300E9C394054004740A28F8740B28F8ECC34B
:103E0300941340047A1480027A06EA28790024097C
:103E1300F85001097A0A7B001202A4E8F90208CAE1
:103E2300C082C083901C22E05402600A1219A1E9E7
:103E33006004790180027900024667C082C08390E2
:103E43001C22E054026016901BC4E0700C124F3821
:103E5300600BE0C81243CC50047901800279000260
:103E63004667C082C08390820AE0F8901BC6E0C315
:103E73009850051210E980047A007B00024667C05F
:103E830082C083122505790002466774F71203F492
:103E930074FE1209B0851882851983EAF0A3EB1228
:103EA3003FFDA3A3A3A3A3E0600A14606024FE6004
:103EB30069023F7E90059BE0640F60181224DBE9E2
:103EC30070128518828519831251A8901BCD124454
:103ED300961227989005C3E0C0E085188285198360
:103EE300124C61D0E0123FFD74141261A112680CF0
:103EF3007AC07B1B12110DA8A8C2AF901BC6E004A9
:103F03001251BE79201224CF740202386D851882B3
:103F1300851983125DAE741580D085188285198347
:103F2300123FE0A3A3E06053851882851983E02440
:103F330002F8A3E03400F9888289831265DFE0C0C8
:103F4300E0851882851983E0FCA3E0CC2406F58282
:103F5300E43CF583D0E01259EA888289831251B890
:103F63008518828519831242C88518828519836052
:103F730013123FE56005123FED4043AA18AB191237
:103F830025058084123FE560F2123FED501C124379
:103F9300DCFA851882851983123FE7F874FC124E08
:103FA30084342DF583E4936A60148518828519831C
:103FB300123FE5640870C41243DC640870BD124309
:103FC300DC14124005240AC0E08518828519831287
:103FD3004496D0E012400504023EEDE0F8A3124CF3
:103FE300AE22E0F8A3E012400C22851882851983E3
:103FF3001259BB12400DC3940A22124017F583884D
:10400300822212401712400C22C82406F582E4389B
:10401300F583E0221261A5E0F8A3E022C082C08309
:10402300901BD5124F3B6008125DAF122798800298
:10403300790002466774F71203F4EAFEEBFF1230CD
:10404300037401F0EE2430F582E43FF58312571830
:10405300122FDD243212451BC0E0EE2413F582E457
:104063003FF583D0E0F0EE243312451BC0E0EE248D
:1040730014F582E43FF583D0E0F0EE242CF582E4DE
:104083003FF5831207521240ACEE242E12451BF962
:1040930012252F7402120918E9F5087007EEFAEFDA
:1040A300FB12240FA908024921EE2423FCE43FFD5F
:1040B30022C082C0831224DBE96004792080027964
:1040C30001024667C082C083EA1242AA12416BD240
:1040D300E0023CEFC082C08312416564017011129B
:1040E3004170400C8A828B83A3E0F91224D5806F40
:1040F300EA2410124168A2E650128A828B83A3E05D
:10410300F9901BCF1244961227988053124165648D
:1041130001700D12417050088A828B83743080368F
:104123008A828B83A3E0641B8A828B83700474224C
:104133008024A3E0700D124165F874E7124E8434B5
:104143002D800B124165F874DC124E84342DF583F7
:10415300E4938A828B83F0901C1DE0F91210F50220
:104163004667EA240DF582E43BF583E022EA124236
:10417300D43BF583E0A2E32274F71203F4E9FE12C1
:104183004F3870030242A1EE6011741B6E7013E08E
:10419300C81242A46405700302426C125D9EE402DD
:1041A300427074E96E70621242C0700B1219A7E973
:1041B30060051242DA606279EE120D77901BC71226
:1041C30042BD901BC7603B1242DD901BC7700B12B0
:1041D30042BD14F0120F2D0242A11242C8C2E712CF
:1041E30043E81242A46403700C1259B41242AA1297
:1041F3004012D2E2F079ED120D771242B0122798F5
:104203008075125DA174E9806474E16E703E1219C9
:10421300A7E960551242DA70509005BDE0C0E01284
:1042230059B42412F582E438F583D0E0F09005AC5C
:10423300E0C0E0901BC7123FDE123FDED0E0F090FB
:1042430005ACE004F07901120F158052741C6E70F6
:1042530018901BC71251A8901BD712449612279887
:10426300901BC7E4F0A3F08035125D9EEEF0901B27
:10427300C71251A81223FD1259B4125986E0548073
:1042830060109005C3E0F9120E319005C2E0F912F7
:104293000E25901BC7E4F0A3F079101224CF024936
:1042A30021240D12400F222411F582E422901BC712
:1042B3001251AC901BCB125DA822E0F8A3E0C824F6
:1042C3001212400F22E0F8A3E0C81242D4124012A7
:1042D300222410F582E422901BC71259BB12598A7B
:1042E300E054042274F41203F4750A00750B00A25F
:1042F300AFE433FFC2AF124F3860030243A412444A
:1043030093122798E94410F8901BBE800985080A88
:1043130085090B1243BF1243D470030243A4123521
:1043230029586870E8780A1208EAAC08AD097ABE21
:104333007B1B12111F7402120918901BC7E508F0AA
:10434300A3E5091243E81243CC405D901BC5E0147A
:10435300F0EFA2E092AF901BC7E0240EF8A3E03485
:1043630000F9880889098882F5831251A8901BC730
:104373001243E2F91223C1E9901BC2F01243F0E0A9
:104383005480901BC760261259B7241312400FF9AB
:10439300120E311259B4241412400FF9120E258053
:1043A30018EFA2E092AF8011901BC480A11242C803
:1043B300A2E1B3E433F9120F15022E6CE50824FBD6
:1043C300F582E50934FFF58322241112400FA2E799
:1043D300221263E3E50845092285188285198312B1
:1043E300322BA3E022F0901BC71259BB22A3E4F0A7
:1043F3008508828509832274F71203F4EAFEEBFF32
:104403001224FFEE241012451BA2E3400C124518A0
:10441300640170059082088003908209E0F9EEFC44
:10442300EFFD7ABE7B1B121125E96046EEFAEFFB26
:10443300901BD1124496122798EE240E12451B545A
:10444300047020A8A8C2AF901BC5E00412519EFAC5
:10445300E8A2E792AF124485A3E05401702112242D
:1044630009801CEEFAEFFB901BC9124496122798A1
:10447300800D8E828F83A374F11248851223FD026F
:10448300492112448922EE240EF582E43FF583226A
:10449300901BD3125DA822C082C083122409024656
:1044A3006774F71203F4EAFEEBFF7900901C22E035
:1044B3005402700CEE243012451B5404600279E858
:1044C300901C22E05460700CEE243012451B540201
:1044D300600279E88E828F83A3A3A3A3E0F890827E
:1044E3000EE0C398500279E8EE242E12451B700C9F
:1044F300EE242B12451B700479F5800BE97005122D
:1045030023EBE9F9E96007EEFAEFFB1224D5024940
:104513002134FFF509EE240DF582E43FF583E02213
:10452300C082C0838A828B83740DF012199B02466A
:1045330067C082C0838A828B83E4F0A3F0EA2430CD
:1045430012416854049082087012E0F8901BC5E091
:10455300C398401279F11224D5024667E0F8901B04
:10456300C4E0C39850EE901C1DE0F91210F580E9E9
:1045730074F61203F4E9FE244CFAE43400FB12103F
:10458300E9EA4B6012EE8A828B83A3A3A3A3F0EA2A
:10459300244C124E8980047A007B00025CE8C082BE
:1045A300C083901BD97457F0A37424F0A37487F0CD
:1045B300A37424F0A3745DF0A37424F0A37463F0D4
:1045C300A37424F0A37481F0A37424F0A37475F08E
:1045D300A37424F0A3746FF0A37424F0A3748DF078
:1045E300A37424F0A37493F0A37424F0A37499F038
:1045F300A37424F0A374A5F0A37424F0A37469F046
:10460300A37424F0A37451F0A37424F0A3744BF0A7
:10461300A37424F0901BF5747BF0A37424F0A374AB
:104623009FF0A37424F0A374BFF0A37425F0A374C4
:10463300ABF0A37424F0A374B1F0A37424F0901C22
:1046430019E4F0901C1CF0901C0512465E7402F0F5
:10465300901C0E12465E7401023CEF74CFF0A374FB
:1046630024F0A322D083D0820208CA74F51203F483
:1046730074F11209B08518828519837402F07401EC
:10468300120BF0E9F060047AFF7BFF7402120BF067
:104693001251B875081175091C750A0078081208BB
:1046A300E67C0B7D007407120BF0AA82AB83121019
:1046B300BF7403120918AA18AB1912199B740F02BD
:1046C300634374F71203F474FD1209B085188285ED
:1046D3001983740AF07401120BF0E9F07402120BDF
:1046E300F0EA1246F812199B02386B851882851975
:1046F30083EAF0A3EBF0AA18AB192274F61203F4C1
:1047030074F71209B0EAFEEBFF12474E122FFB7447
:1047130002124876AA18AB19121281EE242E122F18
:10472300C924301257851208EA74021209A8798342
:104733001A1AEFFB12252F7402120918E9F50870F3
:1047430007EEFAEFFB12240F025CE11244897401B5
:104753002274F01203F412622C120B817808790C84
:1047630012030578081208E27A087B1C02324E74A1
:10477300F41203F474C61209B090059BE0640F6051
:1047830010851882851983742E1246F81224E1804D
:10479300277AFF7B1B122607122E7A1202AC880897
:1047A3008909E4F50AF50B78081208E27AFF7B1B06
:1047B3001225FB7404120918743A022E6974F51257
:1047C30003F4EAFEEBFF8E828F83A3E0F86003021B
:1047D300485FEE242D12451B64026007E06403600A
:1047E3000278E8EE2423F582E43FF583122E73402A
:1047F3000478E8806AE87064EE2423FAE43FFB79E6
:10480300E1120DF5EE242EFAE43FFB7950120DF57B
:10481300EE242D12451B6402700E1259741259AA0C
:104823009005AA124E9380129005AA74FEF0A30479
:104833001248767AA17B0512128DEE2418123C8C55
:104843001208E67C0B7D007A117B1C1210BF7403E7
:10485300120918EEFAEFFB122445E9F8E86011E8B3
:104863008E828F83A3125BD674171248851224E1BC
:10487300026346F0EE2425FCE43FFD228E828F8303
:104883007429F0EEFAEFFB2274F61203F474F712B4
:1048930009B0901C1CE0703B7401F0F9120EDFAA02
:1048A30018AB1912251175081175091C780812081F
:1048B300EA75080175090078081208EA9005B01234
:1048C300075274061209A87A03790512253574066E
:1048D300120918025CE374F71203F4EAFEEBFF79A2
:1048E30001120EE58E828F83E064207004A374EBC3
:1048F300F0901C1CE0A2E25003C2E2F0E0A2E150FF
:1049030008124B2312243F800C8E828F83742A1249
:1049130048851224E18007EEFAEFFB12257D7F0123
:1049230002064F74F41203F474FE1209B0EAFEEBAC
:10493300FF7901120EE57AFF7B1B1226077A087BAB
:104943001C122607124C6D851882851983124CA1FF
:10495300E0F50B700FAA18AB197953120DF512631A
:10496300D3120DF5123C891208E67C0B7D007A11F7
:104973007B1C1210BF7403120918851882851983D2
:104983001251A8A90B122439901C1CE0A2E1500C6F
:104993007A008E828F83A3E0F912243F901C1CE4DB
:1049A300F07402022E6974F71203F4EAFEEBFF8E31
:1049B300828F83A374EBF0901C1CE0A2E150077A72
:1049C3000079EB12243FEEFAEFFB12247502492122
:1049D30074F71203F4EAFEEBFF7901120EE57AFF96
:1049E3007B1B1226077A087B1C122607901C19E4EE
:1049F300F0901C1CF07AFF7BFF8E828F83A3E0F97B
:104A030012243902492174F71203F4EAFEEBFF1270
:104A1300246F02491A74F71203F4EAFEEBFF7901DB
:104A2300120EE58E828F83A3A3A3A3E06004740018
:104A3300800274EB124A6A5003C2E2F0E0A2E15032
:104A430008124B6C12243F8014A2E050108E828F08
:104A530083742AF0A374EB1248851224E1EEFAEF73
:104A6300FB1224210249218E828F83A3F0901C1C08
:104A7300E0A2E22274F61203F4EAFEEBFF901C1CA0
:104A8300E0D2E1F07901120EDF8E828F83A3E07012
:104A93003C122517E9FAEE240DF508E43FF50978F1
:104AA300081208EA75080175090078081208EA1265
:104AB3004AE1120752EE2402FCE43FFD7905122578
:104AC300357406120918E98E828F83A3F08E828FC4
:104AD30083A3E060067A00F912243F025CE8124ADD
:104AE300E522EE240BF582E43FF5832274F71203EB
:104AF300F4EAFEEBFF7901120EE58E828F83E06408
:104B0300207004A374EBF0901C1CE0A2E25003C2DB
:104B1300E2F0E0A2E15006124B2312243F024921A6
:104B2300C2E1F07A008E828F83A3E0F92274F71238
:104B330003F4EAFEEBFF7901120EE57AFF7B1B1209
:104B430026078E828F83A3A3A3A3E060047400804F
:104B53000274EB124A6A5003C2E2F0E0A2E150068B
:104B6300124B6C12243F024A60C2E11239D4A3E013
:104B7300A2E4E433FA8E828F83A3E0F92274F7125E
:104B830003F4EAFEEBFF7901120EE58E828F83A315
:104B930074EB124A6F5003C2E2F0E0A2E150061236
:104BA3004B2312243F02492174F71203F4EAFEEB6C
:104BB300FF7AFF7B1B122607EEFAEFFB1224990202
:104BC300491A74F71203F4EAFEEBFF7AFF7B1B1218
:104BD3002607EEFAEFFB12249902492174F7120318
:104BE300F474EF1209B0EAFEEBFF12597E7AA17B4F
:104BF3000512127BE960628518828519837409F0B6
:104C03007401120BF074EFF0124C6DF87402120B76
:104C1300F0E8124CA1A3A3E0C0E07404120BF0D09F
:104C2300E0124C8E640870158E828F83A3A3124CFE
:104C330061E0C0E07405120BF0D0E0800674051249
:104C43000BF0E41259DD7406120BF0AA82AB831247
:104C53002547AA18AB1912199B741102386D125902
:104C6300BB2407F582E438F58322124C83FB8A8246
:104C73008B831259AE88828983E0FCA3E0F9EC228E
:104C8300EE2402F8E43FF9E8FAE922124C922212E8
:104C93004C97E022F08E828F83A3A3A3A322F0A3D9
:104CA300E91259CC124CAB22E0F8A3125DAFA3A3D7
:104CB30022C082C083122589024667C082C08390C6
:104CC3001C3974D9F0A3741BF0A374F5F0A3741BFF
:104CD300F0901D84745CF0A3742AF0A374FAF0A31B
:104CE3007429F0901C257433F0A37424F0901C22D3
:104CF300E04401023CEFC082C083EAFCEBFD790291
:104D03001224ED024667C082C0837906025E79747D
:104D1300F61203F474FE1209B0901C1E124F3B608E
:104D2300077A1E7B1C122505901C24E4F090189E24
:104D3300124F3B60268007AA18AB19122505901C59
:104D43001DE0F91211018A088B09A808A909851821
:104D530082851983124E93E84970DC7402025CE584
:104D630074F71203F4E9FA7B00901C1DE0F91211A9
:104D73002B02492174F71203F474F01209B0EAFC10
:104D8300EBFDE9FE8C828D83E0F874F2124E8434DD
:104D93002DF583E493C0E07401120BF0D0E0F064CE
:104DA3000B700DEE8C828D83A3F012256B024E7770
:104DB300E07003024E77640C6003024E68741A6E4F
:104DC300700B7404120BF0E4F0A3024E6774041228
:104DD3000BF0ECF0A3EDF0EC242F124E7CC0E0744A
:104DE30003120BF0D0E0125F3F120BA97406120BF3
:104DF300F0120B9D8C828D831259A1740A120BF051
:104E0300124E93EC240E124E7C54106009851882C6
:104E1300851983E48013EC2412124E7CF89005BDAF
:104E2300E0C398851882851983F0E0C0E0740C1202
:104E33000BF0D0E0F0EC2415124E7CC0E0740D12A0
:104E43000BF0D0E0F0EC2416124E7CC0E0740E128E
:104E53000BF0D0E0F0EC2417124E7CC0E0740F127C
:104E63000BF0D0E0F07402120BF0EEF074011209B3
:104E7300A012199B741002386DF582E43DF583E0AE
:104E83002228F582E422F8E43BF98A828B83A3A3E8
:104E9300E8F0A3E9F022C082C083901C24E06403FD
:104EA300700479018002790002466774F71203F4F3
:104EB300901C24E0124F2512680A8A828B83E0C279
:104EC300E7F025E0F8EC124E843DF583A3E493FE6E
:104ED300124F25F583124F3B6005EE901C24F08A98
:104EE300828B83E0124F31EC28F582ED39F583E4B0
:104EF30093FCC4540F25E0F87433124E84341CF52C
:104F030083124F3B70051225598014EC540F25E092
:104F1300FCE82CF582E439F58312449612279802B3
:104F23004921124F31748228F582741D392225E0FC
:104F3300F8E433F922901BC71259AEE8492274F101
:104F43001203F474FE1209B0890AEAFEEBFF125051
:104F53003DFA7B001210E98A088B09EA450960389B
:104F63008A828B83E50AF0A3E4F08E0C8F0DF50E95
:104F7300780C1208E6A80A12504AEA2402FAE43529
:104F830009FB1210BF7403120918AA08AB09901C7D
:104F93001DE0F91210F58012851882851983E50A40
:104FA300F0791AAA18AB191224D57402120918023F
:104FB30030D974F21203F474FE1209B0890B8A0813
:104FC3008B0912503DF50AFA7B001210E98A0C8B0B
:104FD3000DAE0CAF0DEE4F604A8E828F83E50BF062
:104FE300A3E4F0A80AEE28F8E43FF98E828F831237
:104FF3004E918E828F83A3A3A3A3E4F0F50A7808CE
:105003001208E6A80B12504A1233EC1210BF7403B5
:10501300120918EEFAEFFB901C1DE0F91210F57956
:10502300008014851882851983E50BF0791AAA1874
:10503300AB191224D5791A0238FF74BB29F582E41F
:10504300342DF583E4932274D128F582E4342DF5CD
:1050530083E493FC7D0022C082C083E9901C1D027F
:105063003CEF74F61203F474FE1209B0EAFEEBFF90
:10507300EE542070378040A8A8C2AF901BC6E0143E
:1050830012519EF508E8A2E792AF8A828B831251F0
:1050930095901C201251B81224E18518828519833A
:1050A300E0641560077A207B1C1225057AC07B1B00
:1050B300121113EA4B70C0EF54807012801C901CC5
:1050C300201251B81224E17A207B1C122505901C72
:1050D3001DE0F9121101EA4B70E4EE5410600E85E5
:1050E3001882851983742D1246F81224E1EEA2E08A
:1050F300500E85188285198374241246F81224E110
:10510300EE5402600E85188285198374251246F8C1
:105113001224E1EE5404600E8518828519837426E7
:105123001246F81224E1EE5408600E8518828519A0
:105133008374281246F81224E1EE5440601074017F
:10514300120BF01261A0742C1246F81224E1EE54F3
:105153008060107401120BF01261A0742F1246F8D4
:105163001224E1901C1E124F3B6020A8A8C2AF90EE
:105173001C1E1251A8901C1EE4F0A31251BE125122
:10518300B71224E17A207B1C1225057A007B0002EA
:105193004D5EE0851882851983F022F0E8A2E7E4EA
:1051A3003322901BA51251AC22E0FAA3E0FB22A309
:1051B300A3A3A3A3A3EAF0A3EBF02212519EFEE85C
:1051C300A2E792AF22C082C083901C201259AAEAA0
:1051D300687002EB697007901C20E4F0A3F00246AC
:1051E3006774F71203F4EAFEEBFFEE4F7003122627
:1051F30031A2AFE433F508C2AF8E828F83124F3BE7
:105203006028E824FBFAE934FFFB901C2012680CA9
:10521300E86C7002E96D7007901C20E4F0A3F08E37
:10522300828F83E4F0A3F012119D0236BEC082C0C8
:1052330083901C47744DF0A37425F0A3745FF0A30F
:105243007425F0A37465F0A37425F0A3741BF0A375
:105253007424F0A3746BF0A37425F0A37415F0A366
:105263007424F0A37421F0A37424F0901C55749B50
:10527300F0A37425F0A37471F0A37425F0A37477DD
:10528300F0A37425F0A37483F0A37425F0A3747DB5
:10529300F0A37425F0901C46023CEEC082C08390BC
:1052A30005AAE064FE7003A3E0F470097CA17D0508
:1052B30012128180158A828B83A3A3A3A3A3A3A322
:1052C300A37402F0125420124E93024667C082C0A8
:1052D300839005B4C3E094FEA3E094FF40047903F4
:1052E30080027902024667C082C08312542B8C82EB
:1052F3008D831253E0687039740268701C8A828B44
:1053030083125339E06870298A828B83A31253393D
:10531300A3E068701C7901801A7403687013EC248D
:1053230005FC50010DEA2405FA50010B1212878087
:10533300027900024667A3A3A3A3A3E0F88C828D9E
:1053430083A3A3A3A3A32274F61203F47E00740A17
:10535300120BF0E01253D4FF8A828B83A3A3A3A37F
:10536300A3A3A3A3E06F706474026F704E8A828B51
:1053730083C082C08388828983A3A3A3A3A3E0F508
:105383000888828983A3A3A3A3A3A3E0FBAA08D0CD
:1053930083D082E06A7003A3E06B703088828983D4
:1053A300A3A3A3E0FA88828983A3A3A3A3E0F9EAD2
:1053B3006C7002E96D70157E01801174036F700CBF
:1053C300E82405FCE439FD121287E9FEEEF9025CDC
:1053D300E8F8A3E0F9888289831253E022A3E0135B
:1053E30013543F540322C082C0838A828B83A3A3B6
:1053F300A3A3A3A3A3A3E064027014125420E06840
:105403007003A3E06970047901800F7900800BEACF
:10541300FCEBFD7AA17B0512127B0246679005AA7D
:105423001259AE8A828B83228A828B831253E0F8CD
:105433002274EC1203F4EAFEEBFF8C128D13750A4F
:10544300008C828D83A3A3A3A3A3A3A3A3E0F5103E
:10545300E9A2E75008750CFF750DFF80069005B0B3
:10546300125670E9C2E7F511EE240E12451B5420C3
:10547300600712565174088004125651E41256788C
:1054830054046007125659748080051256597410DB
:1054930012567854106006125629E4800B9005BD0D
:1054A300E0C0E0125629D0E0125678A2E05003750E
:1054B3000A20540860067410450AF50A8E828F8309
:1054C300A3A3E024FFF508A3E0124514C39402E06C
:1054D300400B640B6005E0141233FC7403450AF5BA
:1054E3000A750B009005D0E0640170118E828F83E2
:1054F300A3A3A3A3E0C394674003750B1085110E08
:10550300750F00740E780E120A7DE50F450BF50B2F
:105513007414120BF0E0F50EA3E0F50F740265119D
:10552300700E9005B51233FB9005B41256678013C5
:105533007403651170121256337CC47D05AA08FBEF
:1055430012128D1256408004E5116028E510601494
:10555300E50E650C7004E50F650D70087440450A8F
:10556300F50A8010850882850983E50D12567EE5CC
:105573000C12340285100C750D00740A780C120A93
:105583007DE50D450BF50B740265107015851282D0
:10559300851383A31233FB85128285138312566707
:1055A3008013740365107012125633AC12AD13AA34
:1055B30008FB12128D1256408004E5106010850816
:1055C30082850983E50F12567EE50E123402A80880
:1055D300A909E824FFF508E912451470059005A010
:1055E30080039005ACE0FA04F0EA888289831243D1
:1055F300F2E50B12567EE50AF0EE2404F8E43FF9D7
:105603001230E8AC088A828B83E0F50A88828983AA
:10561300E0250AC39C1259C8ECF0A3E509125B44C8
:10562300E4F0F9022E4DEE2412F582E43FF58322D5
:10563300E50824F9F508E50934FFF5092212564473
:1056430022E50824FFF508E50934FFF50922EE12E7
:1056530042D43FF5832212565D22EE2411F582E4F3
:105663003FF58322E0850882850983F022E0F50C6B
:10567300A3E0F50D22F0124489E0221234068508D6
:1056830082F5832274EE1203F4890A8A0B8C108D3F
:1056930011750C1A7416120BF01263DFAA08FB12B1
:1056A30023BB8A0E8B0FAE0EAF0FEE4F60607414E8
:1056B300120BF0125718E8F0A3E9122FFEE50AF0D7
:1056C30085080C85090D750E00780C1208E6123357
:1056D300E81210BF74031209187412120BF01207A8
:1056E30052AC10AD11A90BEEFAEFFB12252F740289
:1056F300120918E9F50C7016E50A24F96003147011
:105703000612346FD2E5F0EEFAEFFB12240FA90C68
:105713007F0A02064F125DBD12448A2274F61203F9
:10572300F474F71209B0EAFEEBFF7801EE242F12AE
:10573300451B60027805124485E8122FFB7404129E
:105743005778121281EE242C122FC9242E1257855A
:105753001208EA74021209A879031A1AEFFB122538
:105763002F7402120918E9F5087007EEFAEFFB121D
:10577300240F025CE1F0EE2423FCE43FFDAA18AB06
:105783001922F582E43FF583123113124C9204F08F
:1057930078082274F21203F48A088B09ECFEEDFFF9
:1057A3008A828B837405F0EE243212451B8A828B26
:1057B30083A3A3F0EA2403F50AE43509F50B850A6C
:1057C30082F583125670125974120BA9E50C12421A
:1057D300AA350DF583120B9D12597EAA0CAB0D123F
:1057E3001281850A82850B83125DB5FAA3E0FB88DB
:1057F300828983A3A3A31251B2EE242F12451BC0A7
:10580300E0125993D0E01259D22415F582E438F509
:1058130083E41259D2125986E41259DD850A82852E
:105823000B83E02416FAA3E03400FB1225478E8293
:105833008F83A3A3A3A3A3A3A3E0C0E0850A8285C8
:105843000B831259B7240DF582E438F583D0E012A7
:1058530059C1FAA3E0FB850A82850B831259AAE892
:10586300240BFCE439FD8A828B83E08C828D83F0E8
:10587300A3E41259EAE0F50B8C828D83A3E0450B78
:105883001259C8A3E0FCA30A0AAB83A2E7E433C01E
:10589300E0E8240FF582E439F583D0E0F074075C87
:1058A300600478018002780075F00374075CA42813
:1058B300F8EA28FAE43BFBE5082405F8E43509F99E
:1058C3008A828B831231131259EA850882850983F0
:1058D3001251B288828983E0F50A540725E0FCE57A
:1058E3000AC4540F5407F50A750B007403780A129F
:1058F3000A7DEC250AF8EA28F8E43BF98508828555
:105903000983A3A3A3A3A3A3A3A3A3E8F0A3E912D7
:105913004C8EFA8E828F83A3A3E02AFAA3E034008D
:10592300FBC3EA98EB9940308E828F83A3A3E0F800
:10593300850882850983A3A3A3A3A3A3A3A3A3E0A9
:10594300FA8E828F83A3A3A3A3E0C39A2885088238
:10595300850983A3A3A38010850882850983A3A354
:10596300A3A3A3A3A31243F0A3A3A3A3A3F0023966
:1059730004EE2425F582E43FF58322EE2413FCE4B0
:105983003FFD2212598A22240EF582E438F5832240
:1059930012599722E82410F582E439F58322A3A350
:1059A300A3A3A3A3A3A3A31259AE22E0F8A3E0F9F0
:1059B30022901BC71259BB22E0F8A3E0C822125B56
:1059C300D6A3A3E0221259CC22F08A828B8322F041
:1059D300850A82850B831259BB22F01259E222EE0B
:1059E3002408FCE43FFD221259CCA3AA82AB8322F4
:1059F30074F51203F48C088D09750A0078081208EF
:105A0300E67C0B7D0002633E0208CAC082C0837934
:105A1300181224D5024667C082C0838A828B83E032
:105A2300C3940B5003122553024667C082C0837987
:105A33001980DE74F71203F4EAFEEBFF901C1E12CA
:105A43004F3B6010901C1E1251A812255F7A1E7BDB
:105A53001C122505EEFAEFFB1224FF901C1EEEF03C
:105A6300A3EF8002F0A3F002492174F71203F47448
:105A7300DE1209B0EAFEEBFF8E828F83E024FD6025
:105A83001124FE601524ED600924FA600D14600AE8
:105A9300803D7416120BF0E480077416120BF07439
:105AA30001F01240AC740B120BF0AA82AB831212FA
:105AB3008D7413120BF0125B49120BF0124E937498
:105AC3000A120BF0125B55120BF0124E93804274C4
:105AD30016120BF07402F012597E740B120BF0AA1B
:105AE30082AB8312128D7413120BF0125B49120BEB
:105AF300F0124E93740A120BF0125B55120BF01254
:105B03002FDD1259E37417120BF0AA82AB8312250F
:105B130047851882851983740B125B44E0C0E074D7
:105B230001120BF0D0E01259DD7417120BF0AA82A8
