:020000040000FA
:06000000020BFA020249A6
:03002B000209D7F0
:030033000207338E
:030043000208A50B
:0300530002017E29
:03006B0002070D7C
:100083000201DD010020FD00020000461000000017
:10009300000000E8100000A61000002E1000000071
:1000A300000000000000000000000000000000004D
:1000B300000000000006FFFF060008B8180000005B
:1000C3000160EA00005357353A2048656C702020E0
:1000D300202020202000EA14F6140000FC1402154E
:1000E30000000000000000000000010000000020EC
:1000F300202020202020202020202020202020011C
:1001030008040100010002BE8202C282010101044F
:10011300000419000000E8030000FFFFD019E80302
:10012300000064006400B801A0BB0D00A0BB0D007B
:10013300020200F8FF070502070401051E02051E5F
:10014300020A0A0102080803B80B02803E0102FEFC
:10015300FFE8030A050001FFFF010A1401E00101A2
:1001630005030101FF0F10FEFFA12B000000007526
:100173002A00000000FF000000FF00C0E074F1123D
:1001830004D8A2AFE433F509D2AF85A708AFA1EF36
:100193005508FE74105E6006120DC475A1EF740855
:1001A3005E6008120DCA75A1F78024EFA2E092F0F9
:1001B300E508A2E082F05017906198E0F89005837B
:1001C300E0C398A2D265D0335002E8F075A1FEE5F2
:1001D30009A2E092AF7F02020537C0E074F2120475
:1001E300D8A2AFE433FED2AF9061A4E0F8759B00D0
:1001F300E59158540860087591F7120E128023E5B3
:100203009158541060087591EF120E188014E591FF
:10021300A2E092F0E8A2E082F05007E0C2E0F01220
:100223000F629061A3E0F8E5E9585404600E120FE1
:100233003875E9FB906193E0A2E640F2EEA2E0920A
:10024300AF7F01020537C0E074F21204D8A2AFE415
:1002530033FED2AF9061A5E0F8E5BF5854046006C1
:1002630075BFFB120F7A80D4C3E498F8E499F912AE
:1002730002AC8026C3E49AFAE49BFBE920E7E91287
:1002830002ACE498F8E499F922C3E498F8E499F904
:100293001202ACE498F8E499F9C3E49AFAE49BFBFC
:1002A30022EB20E7CFE920E7E0B90010BB0008E824
:1002B3008AF084F8AAF022E4FBC8FA22EB70227BCE
:1002C30010C833C8C933C9335007C39AC3DBF2809C
:1002D300069A50012ADBEAC833F4C8C933F4C9FAD1
:1002E3002275F008E4C833C8C933C933C99AC99B16
:1002F3005004C92AC93BD5F0ECFBC833F4C8E4C9A0
:10030300FA22080808EAC0E0EBC0E086F0E7A4FAA6
:10031300180986F0E7A42AFA180986F0E7A42AFA4E
:10032300180986F0E7A42AFA1986F0E7A4FBE5F09A
:100333002AFA190886F0E7A42BFBE5F03AFA190824
:1003430086F0E7A42BFBE5F03AFA18180986F0E7E4
:10035300A4C5F02BFBE43AFA1908E7C5F0C6A426B6
:10036300F6E5F03BFBE43AFA1886F0E7A4F6E5F08D
:100373000826F6E43B08F6E43A08F6D0E0FBD0E0C2
:10038300FA22080808E630E711120AFB12039D0857
:100393000808C64480C618181822181818E9799E48
:1003A300C608CAC608CBC608CCC6C370207996CA8D
:1003B300CBCC7019798ECBCC70137986CC700EF9B7
:1003C300802ACA33CACB33CBCC33CC331930E7F2D0
:1003D300CCCBCA3350147004EA30E00DE4CA3ACAF5
:1003E300CB3BCBCC3CCC500209C3E913C6CC18237E
:1003F30013C6CB18C6CA18C6F922E4CFC0E0E4CEB0
:10040300C0E0E4CDC0E0E4CCC0E075F020E626F621
:1004130008E633F608E633F608E633F6181818EC60
:1004230033FCED33FDEE33FEEF33FFC3EC9709ED01
:100433009709EE9709EF97191919400FFFEC97FCED
:1004430009ED97FD09EE97FE191906D5F0BFECF7F4
:1004530009EDF709EEF709EFF7191919D0E0FCD008
:10046300E0FDD0E0FED0E0FF222518C582C0E0E524
:100473001934FFC583C0E0E518C3958224F810AF93
:10048300088583198582188008858319858218D287
:10049300AFCEF0A3E520F0A37808E608F0A3DEFAD8
:1004A300EFF0A3E58124FAF8E608F0A3E608F0A349
:1004B300E608F0A30808E608F0A3E608F0A3158110
:1004C3001581D0E0FED0E0F8158115811581E8C0D3
:1004D300E0EEC0E022C0D02518C582C0E0E51934A3
:1004E300FFC583C0E0E518C3958224F310AF0885E8
:1004F30083198582188008858319858218D2AFC82D
:10050300F0A3E9F0A3EAF0A3EBF0A37908E709F07D
:10051300A3D8FAECF0A3EDF0A3EEF0A3EFF0A3D091
:10052300E0F0A3D0E0F0A3D0E0F0A3E520F0A3E552
:10053300F0F0A322851983851882E0C0E0A3E0F9D7
:10054300A3E0FAA3E0FBA37808E0F608A3DFFAE050
:10055300FCA3E0FDA3E0FEA3E0FFA3E0C0E0A3E073
:10056300C0E0A3E0F5D0A3E0F520A3E0A3F5F010ED
:10057300AF088583198582188008858319858218B9
:10058300D2AFD082D083D0E0F8D0E032120CAAB937
:1005930000030205CEE4900301789C791A8002F0EF
:1005A300A3D8FCD9FA7A9C7B1C90008678F9790150
:1005B3008015E493A3AD82AE838A828B83F0A3AAD2
:1005C30082AB838D828E83D8E9D9E7758264758384
:1005D3007D74001209687582767583287400120988
:1005E3006875F0108E1A8F1B85821F85831E8518F0
:1005F30082851983E0CEA3E0CF851F82851E83EB1E
:10060300C9EAC8EDCBECCAC3E833C8E933C9EA3356
:10061300CAEB33CBC3EA9EF51DEB9FF51CB3500425
:10062300AB1CAA1DEC33CCED33CDD5F0DAAE1AAF4B
:100633001B22D083D082ECC0E0EDC0E0E493A3FCA6
:10064300E493A3FDED4C600D120751EC24FFFCED88
:1006530034FFFD80EFE493A3FCE493A3FDED4C6032
:100663000D120850EC24FFFCED34FFFD80EFD0E0C9
:10067300FDD0E0FCE493A3C0E0E493C0E022D08388
:10068300D082E9C0E0E493A3C386F0C5F095F0F906
:1006930008E493A386F0C5F095F0700BE493A3C32D
:1006A300994005E9048002A3E475F002A42582F5CC
:1006B30082E5F03583F583D0E0F9E493A3C0E0E469
:1006C30093C0E022851983851882E0A3FEE0A3F599
:1006D300207808E0A3F608DFFAE0A3FFE0A3C0E078
:1006E300E0A3C0E0E0A3C0E0E0A3C0E0E0A3C0E07B
:1006F30010AF088582188583198008858218858341
:1007030019D2AFD083D08202096EC0E074F2120412
:10071300D8A2AFE433FED2AFE589A2E1500312279A
:10072300B0758900C2C5EEA2E092AF7F0102053722
:10073300C0E074F21204D8A2AFE433FED2AFE58B6B
:10074300A2E050031227B0758B00C2E880D8C0E046
:10075300C3E49396087401939618400FE49366706C
:100763000808740193661870007019A3A3C3E49377
:1007730096087401939618A3A3400DD0E0D0E0D05F
:10078300E0020671A3A3A3A3A3A3D0E022D083D046
:1007930082C5F0E493A3C5F0C395F0F5F0E493A309
:1007A300C395F04005E5F0048001E475F002A4254B
:1007B30082F582E5F03583F583E493A3C0E0E49307
:1007C300C0E0227404800474028000CCC0E0EDC059
:1007D300E0E518C39CCCAD1950011D10AF068C1871
:1007E3008D1980068C188D19D2AF1208EAD0E0FD5E
:1007F300D0E0FC2274028000CCC0E0EDC0E0E5183C
:10080300C39CCCAD1950011D10AF068C188D1980F7
:10081300068C188D19D2AF1208C8D0E0FDD0E0FCC9
:1008230022120C0A6025120C196020120CC87003E6
:10083300020CBF080808E76670101819E766700A0B
:100843001819E76670041819E76622F422C0E0C09D
:10085300F088F0E4936670080874019366187000DA
:10086300A8F0A3A3700BD0F0D0E0D0E0D0E0020654
:1008730071A3A3D0F0D0E022D083D082CCC0E0E437
:1008830093A3600612092A1470FAE493A360061274
:100893000A541470FAD0E0FCE493A3C0E0E493C0DC
:1008A300E022C0E074F21204D8A2AFE433FED2AF68
:1008B300C2C0E5D1A2E45003120D34EEA2E092AF20
:1008C3007F01020537CAC0E0E493A3C582CCC58289
:1008D300C583CDC583F0A3C582CCC582C583CDC5F1
:1008E30083DAE5D0E0CA22CAC0E0E0A3C582CCC562
:1008F30082C583CDC583F0A3C582CCC582C583CD14
:10090300C583DAE6D0E0CA22700908080822601617
:10091300181818C6C333C608C633C608C633C60874
:10092300C633C6D5E0EA22C0E0E493A3D39C5010BB
:10093300E493A3C39C400AD0E0D0E0D0E00208983F
:10094300A3A3A3D0E022C008C3E096F50808A3E060
:1009530096420808A3E096420808A3E0964508706B
:1009630001D3D00822C09FF59FE473D09F22D08388
:10097300D082C09FE493C0E0740193C0E0740293FB
:10098300F59F227404800A74038006740280027443
:1009930001C0E0F4041209BCD0E0120C552200C0DF
:1009A300D0251810AF08F518500C05198008F51854
:1009B30050020519D2AFD0D0222518F58210AF0806
:1009C300F518400C15198008F51840021519D2AF17
:1009D30085198322C0E0C0D0E8C0E0A8A8D2AFC286
:1009E300C7E8A2E792AFD0E0F8D0D0D0E032BB01A5
:1009F30002E722C082C08389828A83BB0003E0802E
:100A030002E493D083D082226016080808C6C31379
:100A1300C618C613C618C613C618C613C6D5E0EA49
:100A2300222518F8E43519F9222518FAE43519FBBB
:100A3300222518FCE43519FD22C3E0C696F608A367
:100A4300E0C696F608A3E0C696F608A3E0C696F6B7
:100A530022C0E0E493A36C7009D0E0D0E0D0E002C0
:100A63000898A3A3D0E022251810AF08F518400C6E
:100A730015198008F51840021519D2AF22C3E09664
:100A830008A3E09608A3E09608A3E096A2D265D057
:100A93003322E066701008A3E066700A08A3E066DC
:100AA300700408A3E06622E76670100809E7667021
:100AB3000A0809E76670040809E76622C3E096F0AE
:100AC30008A3E096F008A3E096F008A3E096F022CE
:100AD300C3E493960874019396087402939608747A
:100AE30003939622C3E697F60809E697F60809E604
:100AF30097F60809E697F622181818E4C396F6083D
:100B0300E496F608E496F608E496F622E026F00862
:100B1300A3E036F008A3E036F008A3E036F022E6BF
:100B230057F60809E657F60809E657F60809E6579F
:100B3300F622E056F608A3E056F608A3E056F608B8
:100B4300A3E056F622E056F008A3E056F008A3E02F
:100B530056F008A3E056F022E647F60809E647F602
:100B63000809E647F60809E647F622E627F60809E4
:100B7300E637F60809E637F60809E637F622700481
:100B830022600D18C6C333C608C633C6D5E0F418B1
:100B930022E493F608740193F608740293F608743A
:100BA3000393F622E026F608A3E036F608A3E03620
:100BB300F608A3E036F622600D08C6A2E713C618AE
:100BC300C613C6D5E0F322C6F4C608C6F4C608C6E3
:100BD300F4C608C6F4C622C3E7960809E7960809CF
:100BE300E7960809E79622C3E09608A3E09608A3D0
:100BF300E09608A3E0962275D00075813F75180131
:100C03007519030002058FE6084608C31346083327
:100C13006002E633F422E7094709C3134709336047
:100C230002E733F422600C08C6C313C618C613C602
:100C3300D5E0F422E6F008A3E6F008A3E6F008A363
:100C4300E6F022E0F608A3E0F608A3E0F608A3E046
:100C5300F622CAC0E0E6F0A308DAFAD0E0FA22E00E
:100C6300FCA3E0FDA3E0FEA3E0FF22EAF0A3EBF088
:100C7300A3ECF0A3EDF022E0FAA3E0FBA3E0FCA3D6
:100C8300E0FD22E8F0A3E9F0A3EAF0A3EBF022EC05
:100C9300F0A3EDF0A3EEF0A3EFF022E0F8A3E0F968
:100CA300A3E0FAA3E0FB22E5C754F84401F5C779B2
:100CB30001222518F582E43519F58322E727194720
:100CC3001947194722E62618461846184622C2AF86
:100CD30075D69F0200002212097100E10512097105
:100CE30021E10512097172E10512097174ED051212
:100CF300097182ED05120971FBED05120971D0EE40
:100D030005120971A2F005120971C3FF03120971DB
:100D1300B5F70412097122F804120971DAF8041202
:100D2300097150F9041209716AFA04120971FAFB84
:100D33000412097163FC04120971B2FC04120971F3
:100D4300BBFC04120971CAFC04120971E0FC041211
:100D53000971F3FC04120971FCFC04120971E0C46B
:100D6300051209710CC505120971A3C70512097192
:100D7300E3C7051209711FC80512097133C80512AB
:100D830009714CC8051209713DC905120971EFC9F2
:100D93000512097103CA051209710F870612097139
:100DA3003387061209714C87061209718A87061266
:100DB3000971BA8706120971E787061209714D880E
:100DC300061209715088061209715A8806120971B0
:100DD300678806120971A3F405120971C3F4051299
:100DE300097102F50512097120F5051209713BF528
:100DF30005120971A1F505120971ADF50512097105
:100E03000AF6051209712EF605120971EFF605129D
:100E13000971FCF6051209710DF7051209713C926F
:100E23000612097154920612097180920612097111
:100E330076D405120971D0D505120971DED50512D4
:100E43000971F1D50512097106D6051209711BD670
:100E5300051209712ED605120971AAD60512097158
:100E63000FD705120971A5D7051209717ED805128E
:100E730009718ED8051209719DD805120971069161
:100E8300061209712A91061209715291061209710B
:100E93007A910612097100800612097127800612E1
:100EA3000971458006120971B480061209710FFD9C
:100EB3000412097128FD0412097134FD0412097129
:100EC30048FD0412097166FD0412097170FD0412D4
:100ED30009717AFD041209718DFD0412097113FE63
:100EE3000412097188FE04120971B7FE0412097114
:100EF30005FF0412097154FF041209716FFF0412F4
:100F0300097179FF041209718AFF04120971CDFF77
:100F13000412097176930612097159BB05120971FE
:100F230085BB05120971A2BB05120971B5BB051278
:100F33000971D0BB051209712ABC0512097158BC8D
:100F43000512097168C005120971C6C1051209713C
:100F5300F8C1051209715BC205120971D1C30512EB
:100F63000971F9C3051209710EC4051209711EC472
:100F7300051209715EC405120971A0C40512097135
:100F8300B0C405120971FD8A06120971178B061286
:100F930009713F8B06120971588B061209717C8BFC
:100FA300061209719A8B06120971B18B0612097127
:100FB300DF8B06120971FA8B06120971C1930612AF
:100FC300097107F10512097117F1051209711EF272
:100FD3000512097152F20512097174F205120971B1
:100FE30097F205120971B5F205120971EFF20512B4
:100FF300097154F30512097196F305120971DDF3B2
:10100300051209710AF40512097141F405120971F7
:10101300B7FE01120971D5FE0112097137FF0112E2
:101023000971D1FF011209714B8F061209712D8CC1
:1010330006120971758C06120971F1830612097182
:10104300318506120971689C0512097154A00512B5
:10105300097149A2051209717BA30512097154A4F0
:1010630005120971EBA505120971B7A605120971DD
:101073000BA7051209712582061209714682061211
:101083000971798306120971A383061209713BF76B
:1010930005120971B0F705120971BBF70512097141
:1010A300DCF705120971E1F00112097174F50112FF
:1010B3000971D6F601120971ADF80112097136F9F9
:1010C30001120971CDF9011209718CFA011209712A
:1010D30080FB0112097198FC01120971C7FD01120D
:1010E300097160E60412097163E604120971EFEDF8
:1010F3000412097141EF04120971A2F0041209717B
:1011030079F10412097152F2041209713BF30412CA
:1011130009712FF404120971E7F40412097117F528
:1011230004120971C7F604120971CDF90512097188
:10113300EDF90512097100FB05120971E9FB0512AE
:101143000971718806120971A78806120971C3888B
:1011530006120971058906120971158906120971AA
:10116300AF8906120971B98906120971A9B105126D
:101173000971B3B105120971EDB10512097156B2C6
:101183000512097175B2051209718EB20512097142
:1011930030B305120971B8B505120971C1B505124D
:1011A300097112B6051209713BB60512097148B6E9
:1011B30005120971B9B60512097147B7051209710C
:1011C30095B705120971CBB7051209712CB8051231
:1011D300097155B805120971CCB80512097128B9FE
:1011E3000512097165B9051209719CB905120971D6
:1011F300AEB905120971C0B905120971DFB905123B
:101203000971E8B905120971A3BA05120971EFBA98
:10121300051209712DBB051209713FCF0512097122
:101223007FD005120971A2D005120971B3D005123E
:101233000971D2D205120971F2D20512097117FC94
:10124300051209714DFC0512097195FC051209710E
:10125300EEFD051209712A69001209715B6A001219
:101263000971976A00120971516C001209717B6C44
:1012730000120971F46E00120971346F00120971C2
:10128300C87000120971677100120971BF710012F1
:1012930009715272001209718C7200120971CE72B7
:1012A30000120971417400120971C17500120971AC
:1012B300FE77001209712C78001209715878001218
:1012C3000971617800120971B778001209714779C1
:1012D30000120971857C00120971077D00120971E2
:1012E300D8FF04120971EEFF041209711993061253
:1012F3000971A7E105120971BDE10512097161E2E6
:1013030005120971A0E205120971BDE20512097106
:10131300EEE2051209713BE3051209716FE3051251
:101323000971AAE3051209719FE5051209714B8E34
:1013330006120971AA8E06120971E88E0612097146
:10134300298F061209710080041209710C8004129E
:1013530009716E8004120971788004120971058184
:1013630004120971418104120971FD81041209718A
:101373000A82041209716E8204120971B78204127F
:101383000971888304120971038404120971C285E7
:1013930004120971F587041209715B89041209713A
:1013A300BC8A04120971488B04120971948C0412CB
:1013B3000971978D04120971F18E04120971BB939F
:1013C30004120971B2940412097136950412097159
:1013D3005B95041209718095041209711996041220
:1013E30009713796041209719D9604120971B99611
:1013F30004120971E99604120971FB970412097129
:10140300CE98041209714B9A041209716C9A041252
:101413000971EF9A04120971959B04120971DC9BFF
:1014230004120971549C04120971B19C04120971CC
:101433003C9D04120971949E0412097104A00412C4
:10144300097196A004120971FCA0041209710DA37D
:1014530004120971B2A404120971C7A40412097118
:10146300FFA4041209716CA504120971B0A504123A
:10147300097121A604120971C7A604120971B4A83F
:101483000412097183A90412097195AA041209713E
:1014930043AC0412097155FE05120971F1FE0512E0
:1014A300097112FF05120971BC8906120971008ABC
:1014B300061209714B8A061209710080051209711F
:1014C30034800512097174800512097109810512AE
:1014D30009710D83051209717284051209713D8624
:1014E30005120971A28605120971DF8605120971B9
:1014F3001A87051209713387051209714F8705127F
:101503000971528705120971998705120971D089EA
:1015130005120971F58905120971A48A0512097169
:10152300CB8D0512097170D603120971CBD6031244
:1015330009715BD703120971D4D803120971B4D9A5
:1015430003120971A2DA03120971B9DA03120971DC
:101553000BDB031209717FDB03120971CBDB03126F
:101563000971DEDB0312097137DC03120971A6DC92
:1015730003120971BEDC0312097186DF03120971BC
:101583001CE00312097153E0031209719CE003127A
:1015930009719EE203120971EEE203120971C8E3B5
:1015A3000312097101E40312097120E403120971A2
:1015B3006BE4031209718BE40312097142E5031210
:1015C300097112E6031209711DE60312097191E60E
:1015D30003120971ECE60312097139E70312097169
:1015E30044E803120971E8EA031209711BEB0312C1
:1015F3000971BDEB03120971E2EB0312097166EC89
:101603000312097143ED0312097181ED031209718C
:10161300E5ED03120971A3EE03120971A6EE03129D
:101623000971B0EE03120971BAEE03120971D6EE15
:101633000312097152EF031209718BEF031209713F
:10164300A7EF03120971D3EF03120971FAEF031223
:1016530009711EF00312097159F003120971CCF0DC
:101663000312097100F10312097141F103120971A7
:101673005BF10312097182F103120971B1F10312D3
:101683000971D1F1031209710EF20312097145F2C6
:101693000312097148F30312097180F403120971EB
:1016A3009FF403120971B6F403120971C8F403120B
:1016B3000971C19206120971D9920612097117CAEA
:1016C3000512097155CA05120971EECA051209718D
:1016D300F9CB0512097141CE05120971BECE05126F
:1016E300097131F80212097180F8021209713EFA88
:1016F30002120971F8FB0212097136FC0212097118
:1017030063FD021209716EFE0212097190FE02124C
:101713000971DAFE021209715BFF021209712ED8F8
:101723000212097151D8021209715FD902120971AB
:10173300A8D90212097108DA0212097164DA0212D5
:101743000971B5DA021209712BDB02120971AEDBE2
:101753000212097123DC0212097166DC021209719B
:1017630085E002120971DEE20212097111E302122D
:1017730009716CE302120971B6E6021209713BE7C3
:1017830002120971C5E802120971CEE90212097148
:10179300FEEA0212097162EB0212097122EC0212D3
:1017A300097186EC0212097189EC021209715EED6E
:1017B3000212097196EE021209715DF002120971AB
:1017C30075F20212097177F30212097105F402121C
:1017D300097158F50212097190F602120971CFF6D8
:1017E3000212097183F7021209716EAE04120971B4
:1017F3000EAF041209717AAF0412097195AF041286
:10180300097136B0041209717DB004120971A4B1D3
:1018130004120971E7B10412097163B20412097168
:10182300B6B20412097115B304120971C3B30412D9
:1018330009717EB604120971A8B70412097131B88F
:101843000412097114BA04120971B8BA04120971A5
:1018530057BB04120971B8BB0412097127BC0412E7
:1018630009718BBD041209716ABE04120971A5BE08
:1018730004120971C5BE0412097176BF04120971FD
:10188300B3BF041209713CC004120971D6C104121A
:1018930009719CC3041209711FC50412097191C611
:1018A30004120971A0C7041209712DC80412097129
:1018B30097C804120971AEC90412097101CB04124D
:1018C30009716CCB04120971B4CB04120971F8CB02
:1018D3000412097153CC04120971B0CC04120971BA
:1018E300EBCC041209716FCD04120971C9CD041236
:1018F300097138CF04120971B0CF04120971C8D02D
:1019030004120971F0D004120971FCD10412097197
:101913000DD20412097125D2041209714ED3041297
:10192300097171D3041209714AD4041209716ED476
:101933000412097185D404120971A9D4041209711E
:10194300CBD404120971A5D504120971FFD5041271
:10195300097179D704120971D5D704120971ECD72B
:10196300041209711AD8041209716CD9041209718D
:10197300EBD90412097122DA041209715CDA041238
:101983000971C8DA0412097187DB0412097165DD74
:101993000412097165DE0412097170DF0412097102
:1019A30082E004120971AAE104120971B8E1041278
:1019B3000971BDE2041209715FE304120971A5E321
:1019C30004120971BAE304120971888506120971B8
:1019D30063E504120971BFE5041209719AE905125E
:1019E300097155EB0512097114EC0512097169ECC3
:1019F30005120971EFEC05120971ACE505120971C5
:101A0300CAE5051209710EE60512097134E60512DD
:101A130009715BE60512097173E6051209718BE61C
:101A230005120971A3E60512097145E7051209714B
:101A330087E7051209719CE705120971EBE00512AE
:101A43000971C7E805120971D0E805120971D9E8CF
:101A530005120971E3E805120971CED8051209715F
:101A6300C2DC05120971D0DC05120971D5DC05123F
:101A73000971867E001209713C940612097105945E
:101A8300061209716894061209719194061209717C
:101A9300008002120971578002120971C380021279
:101AA30009714F81021209710582021209714D8277
:101AB3000212097166820212097189820212097186
:101AC300AB8202120971E982021209713883021290
:101AD3000971638302120971C18302120971688457
:101AE300021209711085021209718C8502120971A3
:101AF300598602120971A08602120971EC8602123C
:101B03000971748702120971AD8702120971038882
:101B1300021209711F88021209714E88021209719B
:101B23005A8A02120971888B02120971B48B02124C
:101B33000971E88B02120971098C02120971188C60
:101B430002120971238C02120971D28C02120971DB
:101B5300428D02120971CD8D02120971D58D0212C7
:101B63000971428E021209717E8E02120971448F2D
:101B7300021209711790021209716C900212097115
:101B83000B9102120971659102120971AA91021255
:101B930009714394021209718695021209717098B2
:101BA30002120971549902120971389A02120971C9
:101BB300499A02120971BB9A02120971529B0212CD
:101BC3000971B79B02120971A79C02120971CC9C7F
:101BD30002120971EA9C02120971069D021209712F
:101BE300799D02120971889D02120971109E0212D9
:101BF30009710D9F021209711A9F02120971239F25
:101C03000212097105A10212097127A202120971B8
:101C130037A20212097165A302120971E4A3021229
:101C23000971FFA4021209713BA50212097115A7DC
:101C330002120971D2AA02120971E6AA02120971EB
:101C4300F0AA02120971FAAA0212097104AB021274
:101C530009711DAB0212097127AB0212097194AB12
:101C6300021209719FAB02120971C7AB021209710B
:101C7300D2AB0212097137AC0212097142AC0212E3
:101C8300097166AC021209718AAC02120971FCACCB
:101C93000212097145AD0212097161AD0212097197
:101CA300D2AD021209711EAE0212097167AE0212A1
:101CB3000971A5AE0212097126AF02120971CDAFE7
:101CC300021209719CB10212097101B20212097167
:101CD3002FB30212097155B3021209719DB4021296
:101CE3000971D7B702120971D5B902120971A0BBE4
:101CF3000212097139BC021209713ABE021209714A
:101D0300EFBE0212097128BF021209718EBF0212BF
:101D1300097198BF02120971C1C10212097100C38E
:101D23000212097157C30212097102C40212097126
:101D3300B2C502120971FFC6021209711FC702124E
:101D4300097174C70212097175C8021209719DC81D
:101D530002120971FCC802120971F4C90212097155
:101D63006BCA021209717ECB02120971ECCB02120B
:101D73000971EBCC0212097145CF021209716ECFC2
:101D830002120971D4D00212097156D202120971DA
:101D9300ADD2021209715BD30212097100D402128F
:101DA300097159D40212097117D502120971A9D503
:101DB3000212097108D6021209714AD60212097178
:101DC3007BD602120971D2D7021209710080031265
:101DD30009713280031209716B8003120971298220
:101DE30003120971FF82031209715E8303120971E1
:101DF300748403120971C084031209714E8703129C
:101E03000971288A031209716F8B03120971078CF8
:101E130003120971138C031209715C8C031209718B
:101E23009E8D03120971948E03120971BE8E0312E3
:101E33000971148F031209716D8F03120971E08FF9
:101E4300031209711692031209719893031209710F
:101E5300839403120971CD95031209710598031236
:101E63000971029B03120971119B03120971A59B4E
:101E730003120971509C03120971939C0312097197
:101E8300FB9C03120971179D03120971469D0312EE
:101E93000971859D03120971809E031209712F9F99
:101EA30003120971ACA103120971DEA203120971B5
:101EB300B6A30312097138A4031209716DA80312A2
:101EC30009719CA803120971F7A8031209712AA9C1
:101ED30003120971A2A903120971D5A90312097189
:101EE30036AA0312097186AA0312097153AB0312AE
:101EF30009710CAC03120971D0AC031209714AAF1A
:101F030003120971ACB003120971FDB10312097117
:101F130021B30312097124B30312097153B30312DA
:101F230009714BB5031209710AB60312097139B667
:101F33000312097157B7031209711FB8031209710C
:101F4300DDB9031209710FBA0312097151BA0312F1
:101F5300097150BB03120971C3BB03120971ECBDB4
:101F6300031209714BBE031209719FBE031209715B
:101F7300CEC003120971B1C10312097139C2031230
:101F8300097127C3031209713BC3031209714FC3BC
:101F9300031209717CC303120971ACC303120971E3
:101FA30067C50312097179C603120971CEC60312FC
:101FB300097117C7031209713EC70312097106C8D5
:101FC30003120971ACC80312097132CA03120971F1
:101FD30079CA03120971EBCA0312097140CC0312C7
:101FE3000971E9CC031209711DCD0312097135CDB5
:101FF30003120971D8CD0312097154D00312097168
:10200300FCD1031209711AD20312097138D20312D7
:10201300097104D30312097152D6031209711D8386
:10202300011209715583011209714988011209715D
:10203300958801120971DB8801120971118A011255
:102043000971768A01120971EB8B01120971F58E00
:10205300011209711E9001120971319A011209715D
:10206300C19A01120971AB9D01120971B89E011247
:1020730009711B9F0112097163A001120971D1A299
:102083000112097163A401120971F0A4011209710B
:102093000FA6011209719CA601120971A6A60112CD
:1020A3000971CEA6011209716EA70112097159A80F
:1020B3000112097126A90112097143A901120971BB
:1020C3006CA90112097199A901120971E0AB0112FE
:1020D3000971AFAC01120971EEAC0112097170AD57
:1020E3000112097111AE0112097143AE0112097196
:1020F3008AAE01120971BDAE0112097101AF01125D
:10210300097150AF0112097155AF01120971B1AFD5
:1021130001120971F5AF01120971CFB001120971F2
:1021230034B1011209719AB10112097115B2011288
:1021330009717DB50112097180B601120971FEB7EB
:102143000112097114BB01120971B6BB01120971A5
:10215300FFBD01120971BABE01120971F9BE011264
:102163000971D1C001120971EEC001120971F7C0E2
:102173000112097100C1011209710BC10112097128
:102183002AC101120971CEC2011209712BC30112B6
:10219300097135C3011209713FC3011209719EC34D
:1021A30001120971E8C301120971E9C4011209712D
:1021B30040C50112097151C6011209719AC6011273
:1021C300097154C7011209716BC80112097140C921
:1021D3000112097187CA011209718BCB01120971AE
:1021E30084CC011209719CCC01120971D3CC011268
:1021F3000971DDCC01120971E7CC01120971F2CC2E
:102203000112097110CD0112097158CD0112097122
:10221300B6CD01120971DDCD01120971EFCD0112A5
:102223000971A4CE01120971DDCE01120971FFCF2C
:102233000112097152D00112097138D101120971C9
:102243005FD101120971CFD1011209714BD2011271
:102253000971A7D301120971CED40112097190D566
:10226300011209715ED6011209711CD7011209719D
:1022730004D801120971AED80112097116D90112DD
:102283000971CBD90112097127DA011209717FDAB9
:102293000112097145DB0112097168DB0112097131
:1022A30023DC0112097145DC01120971A6DC01125C
:1022B3000971D6DE01120971CFDF011209717BE0CA
:1022C300011209719CE201120971E5E2011209711F
:1022D30030E3011209718CE301120971EAE301127F
:1022E30009710EE40112097132E40112097167E404
:1022F300011209718FE401120971D4E40112097109
:1023030028E50112097181E5011209717BE60112C9
:10231300097119E8011209715EE80112097187E870
:102323000112097110E90112097183E9011209719E
:1023330091E901120971B5E9011209710BEA011260
:10234300097126EA01120971E1EA011209710DEB23
:102353000112097150EB01120971B3EB01120971FA
:10236300C1ED01120971EDED01120971A8EE01121F
:1023730009718CEF0112097120F00112097129A76B
:102383000512097161A70512097182A70512097166
:10239300C4A70512097128A80512097132A80512EC
:1023A300097142A80512097179A80512097122ACB5
:1023B30005120971EAAD05120971CEAF0512097153
:1023C30070B005120971FAB005120971682F001275
:1023D3000971113000120971F03000120971FC31DA
:1023E300001209711C32001209713E330012097187
:1023F300EE34001209715B35001209712C3600129C
:102403000971323700120971AA3700120971E537D1
:10241300001209713E3800120971793800120971EE
:10242300C23800120971563900120971EC390012D1
:102433000971C13A00120971943B00120971223CDF
:1024430000120971483C00120971753C00120971B0
:10245300A63C00120971733D00120971833D0012FD
:102463000971D63D00120971E33D00120971F03D77
:1024730000120971F93D001209715D3E00120971E4
:10248300BB3E00120971063F00120971213F001281
:102493000971483F00120971653F00120971713FCC
:1024A300001209710241001209711B4100120971E6
:1024B300974100120971AA4100120971BA41001231
:1024C30009715E4200120971CA4300120971DD44A9
:1024D300001209717D4500120971874500120971C7
:1024E300064600120971174600120971564600127A
:1024F3000971844600120971514700120971A847F6
:1025030000120971E147001209713748001209717D
:10251300554800120971A348001209716E4900124F
:102523000971BC4900120971094A001209718C4AE8
:1025330000120971B64A00120971EC4A00120971BE
:10254300FB4A001209715A4B00120971D24B001257
:102553000971134C00120971634C001209718E4CFE
:1025630000120971A84C00120971C24C00120971C2
:10257300974D00120971A14D00120971DC4D001233
:102583000971EC4D00120971F54D00120971464EA7
:10259300001209715A4E001209717C4F0012097121
:1025A300914F0012097124500012097198500012C2
:1025B30009713D5100120971485100120971AB5262
:1025C30000120971C75200120971135300120971E5
:1025D300815300120971B35300120971CD530012D4
:1025E30009712D5400120971CC5400120971175549
:1025F300001209716A570012097102580012097119
:10260300795800120971D65A00120971EE5A001254
:102613000971F15A00120971FD5A00120971115B17
:1026230000120971195B00120971505B00120971E4
:10263300445C00120971CE5C00120971505D0012F6
:102643000971D05D00120971A75E00120971C95E9C
:1026530000120971625F00120971BF5F00120971F4
:10266300C25F001209713160001209717D610012AD
:1026730009719062001209711B63001209712E64C3
:1026830000120971F56400120971266500120971BF
:102693004C650012097155650012097184650012B9
:1026A3000971346600120971E466001209715767F3
:1026B30000120971FA67001209716D68001209713D
:1026C300AC6800120971F56800120971328E0612A6
:1026D3000971CA8D06120971468D0612097132926B
:1026E30006120971CA9106120971AF910612097196
:1026F3009F9106120971AF9406120971F97F0012B6
:102703000971D3E005120971C0E005120971A9E04E
:10271300051209718FE005120971E590061209711E
:102723004790061209713690061209718BFF021247
:1027330009718E9B05120971B29A05120971D0991C
:10274300051209712F9805120971EE970512097187
:10275300C59705120971799705120971E896051253
:102763000971589605120971369605120971DE959D
:10277300051209719A9505120971279505120971B8
:102783001BE005120971C294051209712FDF0512AE
:102793000971BADE05120971A0DE0512097168DE3E
:1027A3000512097151DD051209713CDD051209712C
:1027B300D086061209717786061209717194051283
:1027C3000971989305120971089305120971BC9256
:1027D300051209712F8606120971379205120971C4
:1027E300F29105120971D6910512097175900512BE
:1027F3000971108606120971479005120971BEE826
:1028030005120971149005120971988F0512097147
:1028130078FF0312097116FF03120971E1FE031217
:102823000971AEFE0312097186FE031209711CFEC3
:1028330003120971FEFD03120971CFFD0312097121
:1028430096FA0312097183F80312097186F60312CB
:10285300097106F603120971B4F503120971AA8509
:102863000612097168F503120971FBF40312097169
:10287300C2E40400000080FBE47387000100721DC2
:1028830035000400371D250002003B1D2600020011
:102893003D1D270002003F1D28000100491D29009E
:1028A30001004A1D840004004B1D860001004F1DDA
:1028B3002A000100501D2B000100511D2C000100B6
:1028C300551D2D000800521A2E000100561D2F0021
:1028D3000100571D30000100581D31000100591D32
:1028E300320001005A1A330001005B1A3400010060
:1028F3005A1D360001005C1A380001005B1D3900C7
:102903000100541D83000200701D63000100681A5A
:1029130064000100521D65000100531D6D0001009C
:10292300691A710008004A1A660001006F1D43000E
:102933000100601D44000200611D45000100631D8C
:1029430046000200641D47000800601A48000100A9
:10295300661D4B000100671D04000100731DA100EB
:102963000100761D37000100751D88000100741DEC
:102973003C0001005D1A3D0001005C1D490002009E
:10298300681D670001006A1A4D0002006A1D4E00AF
:1029930001006C1D4F0002006D1D3E0001005F1A17
:1029A300510001005D1D520001005E1D5300010036
:1029B3005F1D540001005E1A0000000000000001CA
:1029C3003636010100010201000103010001040187
:1029D300060605020000070100340801000F090480
:1029E30001010D0100FF0E0800001702000019018C
:1029F30000FF1A0100011B0100FE1C0100081D025B
:102A030000001F0100012001000121020000230139
:102A1300000F2402000026010001270100082802FC
:102A230000FF2A0100072B0102402C0100002D01A9
:102A330000012E0100012F0100FF30010B1D3108A1
:102A430000003A0100083B01000F3C0100013D0179
:102A530000FF3E04000042040000460400004A0454
:102A630000004E04000052040000560400005A0403
:102A730000000103710301030103010301030103C7
:102A830022030203010310030003000300030003F6
:102A930000030003000342030003240306030003AF
:102AA3000003040312032503230325032303040361
:102AB3000403000300030003440300030003230390
:102AC30000036503210035038103000305030003AD
:102AD30000030003000325032303030271023001F3
:102AE300600211027002010202020202800210025D
:102AF30061023A00410063027302720262024302FE
:102B03000002130238000002000204021202000253
:102B130000020002000204020402370037003C02F4
:102B2300440200023900000200026502000235027D
:102B33008102000205028202830200020101710187
:102B430001010101110101013101010101018001B3
:102B5300100161013B001400630173017201620102
:102B630043010001130106013D0135000401120177
:102B730000010001000100010401040133013301DC
:102B83003C014401320136000001000165010001EE
:102B93003500810100010501820183010001030069
:102BA30071003001600011007000310220035004F5
:102BB30080001000610000001400630073007200C5
:102BC3006200430000001300060000000000040040
:102BD30012000000000000000000040004003700A1
:102BE30037003C02440000000000000000006500C4
:102BF3000000350081000000050000008300000094
:102C03000304710402046004110470040204020446
:102C13000104020410046104000414046304730433
:102C23007204620443040004130406040004000451
:102C330004041204000400040004000451046400AA
:102C4300000400040004440400040004000400041D
:102C5300650400043504810464000504000483044E
:102C6300000436000100060000000F000000000011
:102C7300000000000000000003FFFF00000403FF4A
:102C8300FF0000FFFF0FF4010005C404032000014F
:102C930000000B000000000000000003010F000013
:102CA3000000000000000000000000000000000021
:102CB3000000000000000000000000000000000011
:102CC3002A1478143014641300000000000000007C
:102CD3000000000000000000361464133C14641369
:102CE30042146413481464134E1464135414641389
:102CF3005A147E14601464130000000000000000E6
:102D030000000000661490146C146413661490148D
:102D13006C1464135A147E147214641300002C1878
:102D23001300B4171F00BA171F80C01701002C1817
:102D330002003C17030042170400481705004E1712
:102D430006005A17300078173100721732008417C3
:102D530033008A17350090173400961736009C17F6
:102D63001100A8171400AE1715006C17FFFF000021
:102D73000000030020011A830000000020011B83D0
:102D83000000040042014B800000050042016D80F9
:102D93000000060042017E800000070020011C8322
:102DA300000010004203071D000011002003CA1891
:102DB300000012001003181D060000001001CD18BA
:102DC3000A000000020000000400000008000000E8
:102DD3001000000020000000400000008000000000
:102DE30000010000000200000004000000080000D1
:102DF30000100000002000000040000001602006D9
:102E03008A200884200BA220107E1D0266200578EC
:102E130020076C200C48200D5420647A1BFF00000F
:102E230007ECFDFDFDECDCDCCCBCACAC9C9C8C7CF1
:102E33007C6C6C5C5C5C4C4C3C3C2C2C1C1C03EA9A
:102E4300F5E5D5D5C5B5A59595858575756565559F
:102E53005545453535252515150500160F00000B7D
:102E6300150B020002220F3300000E5A69674265F8
:102E730065416C6C69616E6365303901030507094F
:102E83000B0D0F00020406080A0C0D0000000406D7
:102E9300000004060001040600020400034A49433B
:102EA3004E181A25050200393D3F373C3C362C4469
:102EB3002D000119161816161823030030301718A1
:102EC3001921301B1D1F30303016181920231A1CEE
:102ED3001E300C0E020B040B0A0708000F0204023B
:102EE300010101010902E803000000BE040A000019
:102EF3007F000E00E8030000090504040010080326
:102F0300030A1E0C0A10080C281EFF000903010CFB
:102F13000508150404E004123798A2E792AF22E4EF
:102F2300F0A3F0A3F022A3122F22A3F0227F0C021E
:102F330006C7E0F508E4F509F50AF50B227401F07C
:102F430090059BE0640F2274091209A17F04020615
:102F5300C7A3A3E024F5C39413229005BB125A918F
:102F63007A147B0022C082C083901B84742CF0A34C
:102F73007424F0A3743EF0A37424F0901B8874149B
:102F8300F0A37424F0A3740EF0A37424F0A3744A82
:102F9300F0A37424F0A37450F0A37424F0A3744436
:102FA300F0A37424F0A374FCF0A37423F0901B9497
:102FB3007420F0A37424F0A37426F0A37424F0A364
:102FC300741AF0A37424F0A37456F0A37424F0903D
:102FD3001BA512501E6006125288121250901BA29B
:102FE3001247417408F0A3E4F0A3F0901C45F0905D
:102FF3001BA7F07C0BFDF97AA87B1B12117E7C0BBF
:103003007D0079007AB37B1B12117E02474A74F765
:1030130012046C74F7120A6AEAFEEBFF1245687435
:10302300051230DE7403F0EE2402FAE43F1230B8E6
:10303300242DFCE43FFD8C828D831231F61230C7C0
:10304300600812394074FFF0A3F0EE242BE43F1C18
:103053001CFD8C828D83A3E0C0E08A828B831245A2
:1030630079D0E01230C788828983124D712403120C
:10307300585B1213407408120CB57403F09005B03A
:103083001207CA7402120A347903EEFAEFFB12250F
:10309300EE74021209A1E9F5087007EEFAEFFB12CC
:1030A30024CEA9087409023950F582E43FF583124E
:1030B30064C6124D66FB8A828B831230D6E8F0A376
:1030C300E9F0EE22125AAF1230D6E8F0A3E912600B
:1030D3002BE0221231C18A828B8322F0A3E4F01207
:1030E30030E622EE240DF582E43FF5832274F112DB
:1030F300046CEAFEEBFF8C088D09890A1231CB8A36
:10310300828B831231C1740F120CB51231E4E8249F
:10311300FF18E934FFF988828983E50A1231D690D2
:1031230005B51231D39005B41231D37411120CB515
:103133001231E4EE2404FCE43FFD880B8A828B8386
:10314300E0F50C8C828D83E0250CC3950B125AABF2
:10315300E8F0A3E91244D5A3A3A3A3A3A3A3A3E0E5
:1031630064037008124831F0A3E480031234D712C9
:1031730030E17409F0750CA8750D1B750E00780C01
:1031830012098A1234CB12117274031209A1750C3D
:10319300FF750DFF780C12098EAC08AD097903EEAB
:1031A300FAEFFB1225EE74021209A1E9F508700784
:1031B300EEFAEFFB1224CEA9087F070206C7E0242C
:1031C300FFF8A3E034FFF922EE2402FAE43FFB22E6
:1031D3001231F61231DA22F0E824FF18E934FFF94C
:1031E30022E0F50CA31231F61231DA88828983E5E5
:1031F3000CF022E08882898322C082C083901BC4A2
:10320300E0C39408400474078001E08A828B83F052
:1032130033333354F8F902474A74F012046CEAFE6C
:10322300EBFF890C8C0E8D0F750A00A2AFE433F50A
:103233000BC2AF901BBE803F1233045037123315BD
:1032430064037030EE24F9FEEF34FFFF85088285B6
:103253000983A3A3E02405FCA3E03400FDEEFAEF09
:10326300FB121340EE24FF1EEF34FFFF7410250AF8
:10327300F50A150C1244A21264C2E50C6006E508B7
:10328300450970B4E50BA2E092AFA2AFE433F50BAE
:10329300C2AF901BBE802C2402FAE43509FB8A825C
:1032A3008B83125A9A2406F582E438F5831233226B
:1032B3008A828B8312330AA3A3123322050A150CC5
:1032C3001244A21244B76022123315640270F11241
:1032D3003304E50840C1123605A2E550E3850E82AA
:1032E300850F837401F0E50C70D6E50BA2E092AF75
:1032F3008E828F83E50AF0EE24FFFAEF34FFFB8022
:1033030035123610A2E62212330E22125E8FA3A3C9
:10331300A322850882850983125E891254C322E0A1
:103323008E828F83F0EE24FF1EEF34FFFF221226DE
:10333300BA74041209A17F080206C774EC12046C64
:1033430074F5120A6A89138A128B0F8518828519FC
:1033530083E4F004120A2C1223DEE9F890059AE0C4
:10336300292434F508FA7B0012119C8A0A8B0BAED0
:103373000AAF0BEE4F70030234BFEE2402F50AE4EA
:103383003FF50BA808EE28F8E43FF9850A82850B80
:10339300831230C02404F510E43FF511851082F543
:1033A30083E4F090059AE0FCF8C3E498F895E0F91B
:1033B300850A82850B83E028F508A3E039F5099097
:1033C3000598125753750E00780C12098A7D00AACE
:1033D30008AB0912117274031209A1AC18AD197468
:1033E30001120CB5E0F9E50824FFFAE50934FFFB07
:1033F3001223E48A828B83E4F0EA24FFF508EB349A
:10340300FFF509E50FC454F0F9901C46E0C43333CB
:1034130054C0F8900594E0A2E0E433131348494400
:103423000F1234DFE512C454F04513850882850971
:1034330083F0A808850A82850B83E0FA85108285CC
:103443001183E02AC398F0850A82850B83E8F0A3F1
:10345300E509F01234D71230E1E4F0740A120CB526
:10346300E4F07508B375091BF50A780812098A1286
:1034730034CB12117274031209A185188285198342
:10348300E06009EE240E1245FE4408F01225D6E949
:10349300F9E4F508F509780812098E7404120A3460
:1034A300EEFAEFFB1225EE74021209A1E97006EEA3
:1034B300FAEFFB800BEEFAEFFB1211A27A007B000E
:1034C300740B1209A1022F307C0B7D00EE2418FA35
:1034D300E43FFB2212456CE4F0A322E085088285D9
:1034E30009831234E922F01257272274F312046C71
:1034F3008A0A8B0BA2AFE433F50CC2AF75080075D3
:103503000900901BBE802C12372C5024850A82851B
:103513000B83A3A31268EF8E828F83A3A312528B14
:103523001225DCE9600A123552C2E6F08E088F09D3
:103533001237211239DA70CFE508450960061236D1
:103543000CD2E6F0E50CA2E092AF7F050206C712AB
:10355300355622125740E02274F012046CEAFEEB57
:10356300FF8C0C8D0D750E00A2AFE433F50FC2AFC7
:10357300750800750900901BBE8020850A08850B1D
:103583000912360CD2E4F0E508123605D2E7F0E56D
:103593000A24FBF582E50B34FFF583E0F50AA3E08B
:1035A300F50BE50A450B6043E50A12438D350BF530
:1035B30083E0A2E750D9850A82850B83A3A3120770
:1035C300CAAC0CAD0DEEFAEFFB1225E27402120940
:1035D300A1E960BBE508450960A1E508240D1236A1
:1035E3001864017006123621D2E4F0E50FA2E092CE
:1035F300AFE508450960061224C8750E01A90E023D
:1036030033391243B712361B2212361022E508242F
:103613001112361822F582E43509F583E022850874
:1036230082850983125E89E02274F212046C74FEAF
:10363300120A6A750C00750D00851882851983E4DA
:10364300F0A3F0A2AF33F50AC2AF901BBEE0FEA316
:10365300E0FF8035EE24FBF582EF34FF1264C0787F
:103663000C12098EEEFCEFFD7ABE7B1B1211D27495
:10367300021209A1EEFCEFFDAA18AB191211C0AE9C
:1036830008AF09901BC4E014F0EE4F602712372CEB
:10369300501DEE240BF8E43FF988828983E024FF70
:1036A300F0A3E034FFF08882898312501E60A512D4
:1036B300371D8099E50AA2E092AF901BC4E0603108
:1036C30090059BE0640F6006901C45E070237A9C94
:1036D3007B1B1226C690830E1207C67A9C7B1B1295
:1036E30026BA74041209A1800874F01249681224DE
:1036F300BCAA18AB191211C68A0A8B0BAE0AAF0B00
:10370300EE4F60131223F0123552A2E28E828F83A2
:10371300A350D674E980D40239E28E0C8F0DEE24C7
:10372300FBF582EF34FFF58322123556A2E72274AC
:10373300F712046CEAFEEBFF1223F012457612280F
:103743007BE964019005B7700AE02401F8A3E03433
:10375300008004E0F8A3E0F9124BC4124F76901BEB
:10376300C4E0702190059BE0640F70197A9C7B1B69
:103773001226C690830E1207C67A9C7B1B1226BAAA
:1037830074041209A1A9A8C2AF901BC4E0041237A4
:1037930098A2E7800DF0E9A2E7E433F8E922E5080F
:1037A300A2E092AF024A0474F712046CEAFEEBFF44
:1037B3001237DFF01223F0EEFCEFFD7ABE7B1B1213
:1037C30011CCA9A8C2AF901BC4122F1890059BE07F
:1037D300640F7005790812258E024A04123556C209
:1037E300E42274F712046C74EA120A6AEAFEEBFF2D
:1037F300900594E060408518828519837401F01266
:103803000CB5E41238B7120CB5AA82AB831213407D
:103813008E828F83123627C0E0740A120CB5D0E073
:10382300125AC0740B120CB5AA82AB83122606AAD5
:1038330018AB19121A5A741602395074F712046C21
:10384300EAFEEBFF1223D2E9F974DC69601E74DD32
:1038530069601974E469601474F369600F74DE6954
:10386300600A74DF69600574DB697007EEFAEFFBC9
:10387300122594024A0474F712046C74EB120A6A58
:10388300EAFEEBFF85188285198374061238B71296
:103893000CB5AA82AB83121340125AC5740A120CD8
:1038A300B5AA82AB83122606AA18AB19121A5A7448
:1038B30015023950F0EE2413FCE43FFD7402227428
:1038C300F712046C74F7120A6AEAFEEBFFEE242D7A
:1038D3001245FE606512418FAA18AB19121340748A
:1038E30008120CB57403F09005B01207CA123940E0
:1038F3001207CA9005C3E0F97404120A34EEFAEF12
:10390300FB1223D874041209A1E9F974DC6960235A
:1039130074DD69601E74E469601974F3696014747A
:10392300DE69600F74DF69600A74E869600574DB3F
:10393300697007EEFAEFFB1225940230A7EE1239F5
:103943004522242BF582E43FF5832274031209A157
:10395300024A0474F212046C8A088B09750C007510
:103963000D00750AE7A2AFE433F50BC2AF901BBE9F
:10397300800312371D1239DA603512372C50F312D7
:1039830045FB640170ECEE242FF582E43F123B8982
:10399300E06870DE780C12098EEEFCEFFD7ABE7BD8
:1039A3001B1211D274021209A1901BC4E014F0E59A
:1039B3000BA2E092AFEE4F6013EEFAEFFB1223F08F
:1039C30079F0EEFAEFFB122594750A00A90AAA080A
:1039D300AB09122594800DE0FEA3E0FFEE4F2274A5
:1039E300021209A17F060206C774F412046C74F76D
:1039F300120A6AEAFEEBFF8E828F83A3E064F37000
:103A030003023A968E828F83A3E064DF7003023A47
:103A1300968E828F83A3E064E860788E828F83A37F
:103A2300E064DB606E122432E9F508705EEE240E6A
:103A33001245FE6056123AA012247AEA4B604C7487
:103A430008120CB5123AAA1207CA7508FF7509FFC6
:103A5300780812098E8E828F83A3A3A3A3A3A3A3A3
:103A6300A3E0F97404120A341223D874041209A1CE
:103A7300E9F50874F36508601274DF6508600C7477
:103A8300E86508600674DB6508700F8E828F83A378
:103A9300E508F0EEFAEFFB12243E022F4AEE240F64
:103AA300FAE43FFB790922740212628874FFF0A3DF
:103AB300123AB722123ABB22124D7AA3A32274F50B
:103AC30012046C8A088B097E008A828B83A3A3A3CA
:103AD300A3A3A3122F5440027EE88A828B83A3A35D
:103AE300A3A3A3A3A3A3A3A3E0C3941040047EE8CA
:103AF30080138A828B83A3A3A3A3A3A3A3A3A3A3B8
:103B0300E0640F600A901C22E0540870027EE8EA29
:103B1300240BF582E43509123B89A3A3A3A3A3A332
:103B2300A3A3E0C398500CEA240B123618640F6069
:103B3300027EE89005B4E0F47003A3E0F470027E23
:103B4300EC7A237B0012124A901BA512529B901B06
:103B5300A512501E6029850882850983A3A3A98223
:103B6300AA8389088A09750A00780812098A7C23BE
:103B73007D0012528812117274031209A180027E11
:103B83001AEEF9026429F583E0F88A828B83A3A3F2
:103B93002274F512046CEAFEEBFF8E828F83A3A3DB
:103BA300A3A3A3A3A3A3E090059B12616B9005B607
:103BB300126151900596126170901C46F0F9120E35
:103BC300C0901C46E06018EE2404FAE43FFB7950F1
:103BD300120EA8EE2406FAE43FFB79E1120EA89038
:103BE3001C45122F406004740180027400901BA7CF
:103BF30012615712098A7C0B7D007AA87B1B121174
:103C03007274031209A1EE2418F508E43FF509784C
:103C13000812098A7C0B7D007AB37B1B0264217432
:103C2300F712046CEAFEEBFF8E828F83A3E070062B
:103C33001252881224388E828F83742C1249681290
:103C430025A0024A0474F712046CEAFEEBFF901BF2
:103C5300A512501E600D125288901BA5E4F0A3F02C
:103C63001212508E828F837408124968121A5A02F4
:103C73004A0474F612046C901C45E06013901BA771
:103C8300E0700D123C961223EAEA4B60031224CE35
:103C9300025DCB900596E0FB9005B6E0FA90059B9C
:103CA300E0F92274F412046C74E7120A6AEAFEEB78
:103CB300FF750B018E828F83A3A3A3A3A3A3A3E00A
:103CC300A2E25068EE242BF582E43F1268ED123D28
:103CD300641223F6E97055908238E064017005752B
:103CE3000B008048123D6C12098A7C0B7D00741115
:103CF300120A2C12117274031209A11225D6E9FAC1
:103D0300740E120A2488088909780812098E750826
:103D130030750900780812098E1239401207CA1249
:103D23005A6179011225F474061209A18518828556
:103D3300198374101238B7120CB5AA82AB8312130D
:103D430034123940125A8D740B120CB5124F76741B
:103D53000D120CB5E50B1247DB121A5A7419022F18
:103D63004CEE2413FAE43FFB22EE240812615F2297
:103D7300C082C083901C46E0600312264802474A73
:103D8300C082C083901C3D7484F0A3741BF0A374A1
:103D930088F0A3741BF0A37494F0A3741BF0901D1C
:103DA3008A7403F0A3742CF0901C2774CCF0A374D2
:103DB30023F0901BC97402F0A37424F0901BCB74FE
:103DC30008F0A37424F0901C22E044028001E4F084
:103DD30002474AC082C083EAFCEBFD7903024DE649
:103DE300C082C083EAFCEBFD7905024DE6C082C0C8
:103DF300837908025F5CC082C08374FE120A6A90F2
:103E03001BD174B6F0A37424F0901BD374B0F0A349
:103E13007424F0800D7ABE7B1B1211C61247D11297
:103E230025C4901BBE12501E70EB901BC012501E77
:103E3300600F7AC07B1B1211C61247D11225C480B2
:103E4300E9901BBEE4F0A3F0901BC4122F2374026D
:103E5300800274111209A102474A74F612046CE934
:103E6300FF74A929F582E4342EF583E493FEFA7BEB
:103E73000012119CEA4B6011EA2E124F6C8A828B5E
:103E830083A3A3A3A3E4F0802C7A027B0012119CEA
:103E9300EA4B601D74BF2FF582E4342EF583E4935F
:103EA3008A828B83F0A3741AF0901C1DE0F912111F
:103EB300A87A007B00025DCBE9FC740629F8EAA22C
:103EC300E0501EE875F00A84E5F0F96014740A28DE
:103ED300C399F8E9C394054004740A28F8740B28BD
:103EE300F8ECC3941340047A1480027A06EA287922
:103EF300002409F85001097A0A7B001202A4E8F9A8
:103F030002096EC082C083901C22E05402600A1230
:103F13001A60E9600479018002790002474AC0828D
:103F2300C083901C22E054026016901BC4E0700C06
:103F330012501B600BE0C81244AF50047901800299
:103F4300790002474AC082C083908235E0F8901B13
:103F5300C6E0C398500512119C80047A007B0002CE
:103F6300474AC082C0831225C4790002474A74F7C6
:103F730012046C74FE120A6A851882851983EAF0AA
:103F8300A3EB1240E0A3A3A3A3A3E0600A14606021
:103F930024FE606902406190059BE0640F60181283
:103FA300259AE9701285188285198312528B901B0A
:103FB300CD12457912287B9005C3E0C0E0851882B5
:103FC300851983124D44D0E01240E07414126284C8
:103FD3001268EF7AC07B1B1211C0A8A8C2AF901B56
:103FE300C6E0041252A1792012258E7402023950C0
:103FF300851882851983125E91741580D085188285
:104003008519831240C3A3A3E060538518828519E1
:1040130083E02402F8A3E03400F9888289831266DE
:10402300C2E0C0E0851882851983E0FCA3E0CC24BC
:1040330006F582E43CF583D0E0125ACD8882898369
:1040430012529B8518828519831243AB851882858A
:10405300198360131240C860051240D04043AA1868
:10406300AB191225C480841240C860F21240D050AC
:104073001C1244BFFA8518828519831240CAF8744A
:10408300DF124F67342EF583E4936A601485188238
:104093008519831240C8640870C41244BF64087051
:1040A300BD1244BF141240E8240AC0E0851882857B
:1040B3001983124579D0E01240E804023FD0E0F8BA
:1040C300A3124D9122E0F8A3E01240EF228518825B
:1040D300851983125A9E1240F0C3940A221240FAA1
:1040E300F5838882221240FA1240EF22C82406F593
:1040F30082E438F583E022126288E0F8A3E022C06C
:1041030082C083901BD512501E6008125E92122843
:104113007B8002790002474A74F712046CEAFEEBD3
:10412300FF1230E67401F0EE2430F582E43FF583AC
:104133001257FB1230C024321245FEC0E0EE2413A6
:10414300F582E43FF583D0E0F0EE24331245FEC060
:10415300E0EE2414F582E43FF583D0E0F0EE242C66
:10416300F582E43FF5831207CA12418FEE242E1223
:1041730045FEF91225EE74021209A1E9F50870074C
:10418300EEFAEFFB1224CEA908024A04EE2423FC24
:10419300E43FFD22C082C08312259AE9600479209E
:1041A3008002790102474AC082C083EA12438D121A
:1041B300424ED2E0023DD2C082C083124248640123
:1041C3007011124253400C8A828B83A3E0F91225AB
:1041D30094806FEA241012424BA2E650128A828B1B
:1041E30083A3E0F9901BCF12457912287B805312E9
:1041F30042486401700D12425350088A828B8374C3
:104203003080368A828B83A3E0641B8A828B83701F
:104213000474228024A3E0700D124248F874CA1279
:104223004F67342E800B124248F874BF124F673425
:104233002EF583E4938A828B83F0901C1DE0F912A0
:1042430011A802474AEA240DF582E43BF583E022F4
:10425300EA1243B73BF583E0A2E32274F712046C3E
:10426300E9FE12501B7003024384EE6011741B6E4F
:104273007013E0C81243876405700302434F125E54
:1042830081E402435374E96E70621243A3700B120C
:104293001A66E960051243BD606279EE120E2A9038
:1042A3001BC71243A0901BC7603B1243C0901BC7A0
:1042B300700B1243A014F0120FE00243841243ABBD
:1042C300C2E71244CB1243876403700C125A97124D
:1042D300438D1240F5D2E2F079ED120E2A12439388
:1042E30012287B8075125E8474E9806474E16E70B9
:1042F3003E121A66E960551243BD70509005BDE049
:10430300C0E0125A972412F582E438F583D0E0F026
:104313009005ACE0C0E0901BC71240C11240C1D071
:10432300E0F09005ACE004F07901120FC8805274FC
:104333001C6E7018901BC712528B901BD7124579B5
:1043430012287B901BC7E4F0A3F08035125E81EE48
:10435300F0901BC712528B1224BC125A97125A693F
:10436300E0548060109005C3E0F9120EE49005C29A
:10437300E0F9120ED8901BC7E4F0A3F079101225D0
:104383008E024A04240D1240F2222411F582E42203
:10439300901BC712528F901BCB125E8B22E0F8A3A7
:1043A300E0C824121240F222E0F8A3E0C81243B797
:1043B3001240F5222410F582E422901BC7125A9E64
:1043C300125A6DE054042274F412046C750A0075D9
:1043D3000B00A2AFE433FFC2AF12501B60030244D1
:1043E3008712457612287BE94410F8901BBE80099A
:1043F30085080A85090B1244A21244B770030244CC
:104403008712360C586870E8780A12098EAC08AD2A
:10441300097ABE7B1B1211D274021209A1901BC729
:10442300E508F0A3E5091244CB1244AF405D901BAD
:10443300C5E014F0EFA2E092AF901BC7E0240EF8A2
:10444300A3E03400F9880889098882F58312528B26
:10445300901BC71244C5F9122480E9901BC2F012C5
:1044630044D3E05480901BC76026125A9A24131237
:1044730040F2F9120EE4125A9724141240F2F91280
:104483000ED88018EFA2E092AF8011901BC480A1D8
:104493001243ABA2E1B3E433F9120FC8022F4FE585
:1044A3000824FBF582E50934FFF583222411124029
:1044B300F2A2E7221264C6E508450922851882851F
:1044C300198312330EA3E022F0901BC7125A9E22C7
:1044D300A3E4F08508828509832274F712046CEA49
:1044E300FEEBFF1225BEEE24101245FEA2E3400CA4
:1044F3001245FB640170059082338003908234E09F
:10450300F9EEFCEFFD7ABE7B1B1211D8E96046EE93
:10451300FAEFFB901BD112457912287BEE240E1281
:1045230045FE54047020A8A8C2AF901BC5E0041236
:104533005281FAE8A2E792AF124568A3E0540170F2
:10454300211224C8801CEEFAEFFB901BC912457997
:1045530012287B800D8E828F83A374F11249681217
:1045630024BC024A0412456C22EE240EF582E43F79
:10457300F58322901BD3125E8B22C082C083122448
:10458300C802474A74F712046CEAFEEBFF79009005
:104593001C22E05402700CEE24301245FE540460D9
:1045A3000279E8901C22E05460700CEE243012452E
:1045B300FE5402600279E88E828F83A3A3A3A3E053
:1045C300F8908239E0C398500279E8EE242E124520
:1045D300FE700CEE242B1245FE700479F5800BE976
:1045E30070051224AAE9F9E96007EEFAEFFB122538
:1045F30094024A0434FFF509EE240DF582E43FF5F5
:1046030083E022C082C0838A828B83740DF0121AE6
:104613005A02474AC082C0838A828B83E4F0A3F0A4
:10462300EA243012424B54049082337012E0F89023
:104633001BC5E0C398401279F112259402474AE062
:10464300F8901BC4E0C39850EE901C1DE0F91211C2
:10465300A880E974F612046CE9FE244CFAE43400F1
:10466300FB12119CEA4B6012EE8A828B83A3A3A3F5
:10467300A3F0EA244C124F6C80047A007B00025DA5
:10468300CBC082C083901BD97416F0A37425F0A30A
:104693007446F0A37425F0A3741CF0A37425F0A34F
:1046A3007422F0A37425F0A37440F0A37425F0A33F
:1046B3007434F0A37425F0A3742EF0A37425F0A32F
:1046C300744CF0A37425F0A37452F0A37425F0A3E3
:1046D3007458F0A37425F0A37464F0A37425F0A3B5
:1046E3007428F0A37425F0A37410F0A37425F0A329
:1046F300740AF0A37425F0901BF5743AF0A37425A3
:10470300F0A3745EF0A37425F0A3747EF0A3742663
:10471300F0A3746AF0A37425F0A37470F0A3742556
:10472300F0901C19E4F0901C1CF0901C05124741FA
:104733007402F0901C0E1247417401023DD2748E34
:10474300F0A37425F0A322D083D08202096E74F5FE
:1047530012046C74F1120A6A851882851983740233
:10476300F07401120CB5E9F060047AFF7BFF740268
:10477300120CB512529B75081175091C750A007845
:104783000812098A7C0B7D007407120CB5AA82AB50
:104793008312117274031209A1AA18AB19121A5ABF
:1047A300740F02642674F712046C74FD120A6A858E
:1047B3001882851983740AF07401120CB5E9F07438
:1047C30002120CB5EA1247DB121A5A02394E851847
:1047D30082851983EAF0A3EBF0AA18AB192274F6C9
:1047E30012046C74F7120A6AEAFEEBFF12483112E4
:1047F30030DE7402124959AA18AB19121334EE248D
:104803002E1230AC243012586812098E7402120A28
:104813003479831A1AEFFB1225EE74021209A1E907
:10482300F5087007EEFAEFFB1224CE025DC41245C1
:104833006C74012274F012046C12630F120C46782C
:1048430008790C12030578081209867A087B1C0282
:10485300333174F412046C74C6120A6A90059BE037
:10486300640F6010851882851983742E1247DB123A
:1048730025A080277AFF7B1B1226C6122F5D12020A
:10488300AC88088909E4F50AF50B78081209867AD9
:10489300FF7B1B1226BA74041209A1743A022F4C2F
:1048A30074F512046CEAFEEBFF8E828F83A3E0F8AB
:1048B3006003024942EE242D1245FE64026007E0C4
:1048C3006403600278E8EE2423F582E43FF5831263
:1048D3002F56400478E8806AE87064EE2423FAE4F3
:1048E3003FFB79E1120EA8EE242EFAE43FFB795048
:1048F300120EA8EE242D1245FE6402700E125A57B2
:10490300125A8D9005AA124F7680129005AA74FE52
:10491300F0A3041249597AA17B05121340EE24181F
:10492300123D6F12098A7C0B7D007A117B1C1211D8
:104933007274031209A1EEFAEFFB122504E9F8E8F9
:104943006011E88E828F83A3125CB97417124968D1
:104953001225A0026429F0EE2425FCE43FFD228EFB
:10496300828F837429F0EEFAEFFB2274F612046C43
:1049730074F7120A6A901C1CE0703B7401F0F91280
:104983000F92AA18AB191225D075081175091C7856
:104993000812098E750801750900780812098E90AE
:1049A30005B01207CA7406120A347A037905122570
:1049B300F474061209A1025DC674F712046CEAFED0
:1049C300EBFF7901120F988E828F83E064207004CD
:1049D300A374EBF0901C1CE0A2E25003C2E2F0E0EF
:1049E300A2E15008124C061224FE800C8E828F83A3
:1049F300742A1249681225A08007EEFAEFFB1226EB
:104A03003C7F010206C774F412046C74FE120A6A36
:104A1300EAFEEBFF7901120F987AFF7B1B1226C681
:104A23007A087B1C1226C6124D508518828519837D
:104A3300124D84E0F50B700FAA18AB197953120EBF
:104A4300A81264B6120EA8123D6C12098A7C0B7D63
:104A5300007A117B1C12117274031209A18518824A
:104A630085198312528BA90B1224F8901C1CE0A207
:104A7300E1500C7A008E828F83A3E0F91224FE901A
:104A83001C1CE4F07402022F4C74F712046CEAFE4F
:104A9300EBFF8E828F83A374EBF0901C1CE0A2E1EA
:104AA30050077A0079EB1224FEEEFAEFFB1225345D
:104AB300024A0474F712046CEAFEEBFF7901120F49
:104AC300987AFF7B1B1226C67A087B1C1226C69097
:104AD3001C19E4F0901C1CF07AFF7BFF8E828F83FD
:104AE300A3E0F91224F8024A0474F712046CEAFEF4
:104AF300EBFF12252E0249FD74F712046CEAFEEB5C
:104B0300FF7901120F988E828F83A3A3A3A3E06082
:104B1300047400800274EB124B4D5003C2E2F0E0C8
:104B2300A2E15008124C4F1224FE8014A2E0501050
:104B33008E828F83742AF0A374EB1249681225A026
:104B4300EEFAEFFB1224E0024A048E828F83A3F075
:104B5300901C1CE0A2E22274F612046CEAFEEBFF46
:104B6300901C1CE0D2E1F07901120F928E828F83A8
:104B7300A3E0703C1225D6E9FAEE240DF508E43FD4
:104B8300F509780812098E7508017509007808126D
:104B9300098E124BC41207CAEE2402FCE43FFD79CE
:104BA300051225F474061209A1E98E828F83A3F0FE
:104BB3008E828F83A3E060067A00F91224FE025DE1
:104BC300CB124BC822EE240BF582E43FF58322740B
:104BD300F712046CEAFEEBFF7901120F988E828FB5
:104BE30083E064207004A374EBF0901C1CE0A2E249
:104BF3005003C2E2F0E0A2E15006124C061224FE7A
:104C0300024A04C2E1F07A008E828F83A3E0F92284
:104C130074F712046CEAFEEBFF7901120F987AFF26
:104C23007B1B1226C68E828F83A3A3A3A3E06004FB
:104C33007400800274EB124B4D5003C2E2F0E0A209
:104C4300E15006124C4F1224FE024B43C2E1123ACA
:104C5300B7A3E0A2E4E433FA8E828F83A3E0F922C0
:104C630074F712046CEAFEEBFF7901120F988E823F
:104C73008F83A374EB124B525003C2E2F0E0A2E124
:104C83005006124C061224FE024A0474F712046CF6
:104C9300EAFEEBFF7AFF7B1B1226C6EEFAEFFB124E
:104CA30025580249FD74F712046CEAFEEBFF7AFF04
:104CB3007B1B1226C6EEFAEFFB122558024A047438
:104CC300F712046C74EF120A6AEAFEEBFF125A61E0
:104CD3007AA17B0512132EE96062851882851983F8
:104CE3007409F07401120CB574EFF0124D50F8749E
:104CF30002120CB5E8124D84A3A3E0C0E0740412C1
:104D03000CB5D0E0124D71640870158E828F83A3A9
:104D1300A3124D44E0C0E07405120CB5D0E0800648
:104D23007405120CB5E4125AC07406120CB5AA82AB
:104D3300AB83122606AA18AB19121A5A7411023938
:104D430050125A9E2407F582E438F58322124D66E9
:104D5300FB8A828B83125A9188828983E0FCA3E0C9
:104D6300F9EC22EE2402F8E43FF9E8FAE922124DC5
:104D73007522124D7AE022F08E828F83A3A3A3A320
:104D830022F0A3E9125AAF124D8E22E0F8A3125E6D
:104D930092A3A322C082C08312264802474AC0823C
:104DA300C083901C3974D9F0A3741BF0A374F5F07D
:104DB300A3741BF0901D84743FF0A3742BF0A374B1
:104DC300DDF0A3742AF0901C2574F2F0A37424F090
:104DD300901C22E04401023DD2C082C083EAFCEB76
:104DE300FD79021225AC02474AC082C083790602CC
:104DF3005F5C74F612046C74FE120A6A901C1E1235
:104E0300501E60077A1E7B1C1225C4901C24E4F0FC
:104E130090189E12501E60268007AA18AB191225FF
:104E2300C4901C1DE0F91211B48A088B09A808A9C3
:104E330009851882851983124F76E84970DC74025C
:104E4300025DC874F712046CE9FA7B00901C1DE044
:104E5300F91211DE024A0474F712046C74F0120A98
:104E63006AEAFCEBFDE9FE8C828D83E0F874D512CF
:104E73004F67342EF583E493C0E07401120CB5D070
:104E8300E0F0640B700DEE8C828D83A3F012262A62
:104E9300024F5AE07003024F5A640C6003024F4BF7
:104EA300741A6E700B7404120CB5E4F0A3024F4A2B
:104EB3007404120CB5ECF0A3EDF0EC242F124F5F49
:104EC300C0E07403120CB5D0E0126022120C9E7481
:104ED30006120CB5120C868C828D83125A84740AC6
:104EE300120CB5124F76EC240E124F5F541060096A
:104EF300851882851983E48013EC2412124F5FF81E
:104F03009005BDE0C398851882851983F0E0C0E061
:104F1300740C120CB5D0E0F0EC2415124F5FC0E016
:104F2300740D120CB5D0E0F0EC2416124F5FC0E004
:104F3300740E120CB5D0E0F0EC2417124F5FC0E0F2
:104F4300740F120CB5D0E0F07402120CB5EEF074CD
:104F530001120A2C121A5A7410023950F582E43DD8
:104F6300F583E02228F582E422F8E43BF98A828B78
:104F730083A3A3E8F0A3E9F022C082C083901C249A
:104F8300E06403700479018002790002474A74F7F0
:104F930012046C901C24E01250081268ED8A828B74
:104FA30083E0C2E7F025E0F8EC124F673DF583A3F9
:104FB300E493FE125008F58312501E6005EE901C18
:104FC30024F08A828B83E0125014EC28F582ED39A9
:104FD300F583E493FCC4540F25E0F87433124F6750
:104FE300341CF58312501E70051226188014EC54DD
:104FF3000F25E0FCE82CF582E439F583124579129C
:10500300287B024A04125014748228F582741D39D5
:105013002225E0F8E433F922901BC7125A91E8499C
:105023002274F112046C74FE120A6A890AEAFEEB16
:10503300FF125120FA7B0012119C8A088B09EA4562
:105043000960388A828B83E50AF0A3E4F08E0C8F23
:105053000DF50E780C12098AA80A12512DEA2402C2
:10506300FAE43509FB12117274031209A1AA08AB01
:1050730009901C1DE0F91211A88012851882851968
:1050830083E50AF0791AAA18AB191225947402124F
:1050930009A10231BC74F212046C74FE120A6A890B
:1050A3000B8A088B09125120F50AFA7B0012119C16
:1050B3008A0C8B0DAE0CAF0DEE4F604A8E828F8340
:1050C300E50BF0A3E4F0A80AEE28F8E43FF98E829A
:1050D3008F83124F748E828F83A3A3A3A3E4F0F56F
:1050E3000A780812098AA80B12512D1234CF121113
:1050F3007274031209A1EEFAEFFB901C1DE0F91282
:1051030011A879008014851882851983E50BF0793D
:105113001AAA18AB19122594791A0239E2749E2936
:10512300F582E4342EF583E4932274B428F582E403
:10513300342EF583E493FC7D0022C082C083E99082
:105143001C1D023DD274F612046C74FE120A6AEA44
:10515300FEEBFFEE542070378040A8A8C2AF901B2F
:10516300C6E014125281F508E8A2E792AF8A828B57
:1051730083125278901C2012529B1225A08518820C
:10518300851983E0641560077A207B1C1225C47A95
:10519300C07B1B1211C6EA4B70C0EF5480701280A3
:1051A3001C901C2012529B1225A07A207B1C1225D6
:1051B300C4901C1DE0F91211B4EA4B70E4EE5410D4
:1051C300600E851882851983742D1247DB1225A082
:1051D300EEA2E0500E85188285198374241247DBF2
:1051E3001225A0EE5402600E85188285198374255A
:1051F3001247DB1225A0EE5404600E851882851930
:105203008374261247DB1225A0EE5408600E85181E
:105213008285198374281247DB1225A0EE5440605F
:10522300107401120CB5126283742C1247DB122521
:10523300A0EE548060107401120CB5126283742FB7
:105243001247DB1225A0901C1E12501E6020A8A836
:10525300C2AF901C1E12528B901C1EE4F0A312527C
:10526300A112529A1225A07A207B1C1225C47A001F
:105273007B00024E41E0851882851983F022F0E815
:10528300A2E7E43322901BA512528F22E0FAA3E097
:10529300FB22A3A3A3A3A3A3EAF0A3EBF02212523E
:1052A30081FEE8A2E792AF22C082C083901C201245
:1052B3005A8DEA687002EB697007901C20E4F0A332
:1052C300F002474A74F712046CEAFEEBFFEE4F70EC
:1052D300031226FCA2AFE433F508C2AF8E828F839C
:1052E30012501E6028E824FBFAE934FFFB901C20CF
:1052F3001268EFE86C7002E96D7007901C20E4F00F
:10530300A3F08E828F83E4F0A3F01212500237A130
:10531300C082C083901C47740CF0A37426F0A3745E
:105323001EF0A37426F0A37424F0A37426F0A374D0
:10533300DAF0A37424F0A3742AF0A37426F0A37400
:10534300D4F0A37424F0A374E0F0A37424F0901CAD
:1053530055745AF0A37426F0A37430F0A37426F0A6
:10536300A37436F0A37426F0A37442F0A37426F05A
:10537300A3743CF0A37426F0901C46023DD1C08276
:10538300C0839005AAE064FE7003A3E0F470097C77
:10539300A17D0512133480158A828B83A3A3A3A353
:1053A300A3A3A3A37402F0125503124F7602474A34
:1053B300C082C0839005B4C3E094FEA3E094FF4091
:1053C3000479038002790202474AC082C0831255DE
:1053D3000E8C828D831254C3687039740268701CFA
:1053E3008A828B8312541CE06870298A828B83A380
:1053F30012541CA3E068701C7901801A740368704E
:1054030013EC2405FC50010DEA2405FA50010B129C
:10541300133A8002790002474AA3A3A3A3A3E0F8A7
:105423008C828D83A3A3A3A3A32274F612046C7EA0
:1054330000740A120CB5E01254B7FF8A828B83A35F
:10544300A3A3A3A3A3A3A3E06F706474026F704E1E
:105453008A828B83C082C08388828983A3A3A3A308
:10546300A3E0F50888828983A3A3A3A3A3A3E0FBF6
:10547300AA08D083D082E06A7003A3E06B703088FF
:10548300828983A3A3A3E0FA88828983A3A3A3A326
:10549300E0F9EA6C7002E96D70157E018011740306
:1054A3006F700CE82405FCE439FD12133AE9FEEEB3
:1054B300F9025DCBF8A3E0F9888289831254C322F1
:1054C300A3E01313543F540322C082C0838A828B08
:1054D30083A3A3A3A3A3A3A3A3E0640270141255FD
:1054E30003E0687003A3E06970047901800F790019
:1054F300800BEAFCEBFD7AA17B0512132E02474ACF
:105503009005AA125A918A828B83228A828B8312F4
:1055130054C3F82274EC12046CEAFEEBFF8C128D78
:1055230013750A008C828D83A3A3A3A3A3A3A3A3B0
:10553300E0F510E9A2E75008750CFF750DFF800632
:105543009005B0125753E9C2E7F511EE240E124548
:10555300FE5420600712573474088004125734E451
:1055630012575B5404600712573C7480800512572E
:105573003C741012575B5410600612570CE4800BF6
:105583009005BDE0C0E012570CD0E012575BA2E0DB
:105593005003750A20540860067410450AF50A8EF4
:1055A300828F83A3A3E024FFF508A3E01245F7C38A
:1055B3009402E0400B640B6005E0141234DF7403C3
:1055C300450AF50A750B009005D0E0640170118E51
:1055D300828F83A3A3A3A3E0C394674003750B1037
:1055E30085110E750F00740E780E120B81E50F45B1
:1055F3000BF50B7414120CB5E0F50EA3E0F50F7464
:10560300026511700E9005B51234DE9005B4125781
:105613004A80137403651170121257167CC47D05FA
:10562300AA08FB1213401257238004E5116028E5F2
:10563300106014E50E650C7004E50F650D700874B9
:1056430040450AF50A8010850882850983E50D1215
:105653005761E50C1234E585100C750D00740A785A
:105663000C120B81E50D450BF50B740265107015DB
:10567300851282851383A31234DE851282851383F8
:1056830012574A8013740365107012125716AC1226
:10569300AD13AA08FB1213401257238004E51060D0
:1056A30010850882850983E50F125761E50E1234D0
:1056B300E5A808A909E824FFF508E91245F77005EC
:1056C3009005A080039005ACE0FA04F0EA88828993
:1056D300831244D5E50B125761E50AF0EE2404F872
:1056E300E43FF91231CBAC088A828B83E0F50A8858
:1056F300828983E0250AC39C125AABECF0A3E50927
:10570300125C27E4F0F9022F30EE2412F582E43F15
:10571300F58322E50824F9F508E50934FFF50922A4
:1057230012572722E50824FFF508E50934FFF50998
:1057330022EE1243B73FF5832212574022EE241183
:10574300F582E43FF58322E0850882850983F02210
:10575300E0F50CA3E0F50D22F012456CE0221234C3
:10576300E9850882F5832274EE12046C890A8A0B98
:105773008C108D11750C1A7416120CB51264C2AA12
:1057830008FB12247A8A0E8B0FAE0EAF0FEE4F601A
:10579300607414120CB51257FBE8F0A3E91230E160
:1057A300E50AF085080C85090D750E00780C1209C1
:1057B3008A1234CB12117274031209A17412120CDF
:1057C300B51207CAAC10AD11A90BEEFAEFFB122507
:1057D300EE74021209A1E9F50C7016E50A24F960CA
:1057E30003147006123552D2E5F0EEFAEFFB1224E1
:1057F300CEA90C7F0A0206C7125EA012456D227461
:10580300F612046C74F7120A6AEAFEEBFF7801EEF3
:10581300242F1245FE60027805124568E81230DE37
:10582300740412585B121334EE242C1230AC242E61
:1058330012586812098E7402120A3479031A1AEF85
:10584300FB1225EE74021209A1E9F5087007EEFABE
:10585300EFFB1224CE025DC4F0EE2423FCE43FFDF3
:10586300AA18AB1922F582E43FF5831231F6124DE3
:105873007504F078082274F212046C8A088B09EC20
:10588300FEEDFF8A828B837405F0EE24321245FE0F
:105893008A828B83A3A3F0EA2403F50AE43509F58E
:1058A3000B850A82F583125753125A57120C9EE541
:1058B3000C12438D350DF583120C86125A61AA0C16
:1058C300AB0D121334850A82850B83125E98FAA3FB
:1058D300E0FB88828983A3A3A3125295EE242F129F
:1058E30045FEC0E0125A76D0E0125AB52415F5826F
:1058F300E438F583E4125AB5125A69E4125AC085A2
:105903000A82850B83E02416FAA3E03400FB1226F7
:10591300068E828F83A3A3A3A3A3A3A3E0C0E085E2
:105923000A82850B83125A9A240DF582E438F58393
:10593300D0E0125AA4FAA3E0FB850A82850B8312F6
:105943005A8DE8240BFCE439FD8A828B83E08C8238
:105953008D83F0A3E4125ACDE0F50B8C828D83A3E3
:10596300E0450B125AABA3E0FCA30A0AAB83A2E700
:10597300E433C0E0E8240FF582E439F583D0E0F0A6
:1059830074075C600478018002780075F003740783
:105993005CA428F8EA28FAE43BFBE5082405F8E4CC
:1059A3003509F98A828B831231F6125ACD85088222
:1059B30085098312529588828983E0F50A54072565
:1059C300E0FCE50AC4540F5407F50A750B00740391
:1059D300780A120B81EC250AF8EA28F8E43BF985EA
:1059E3000882850983A3A3A3A3A3A3A3A3A3E8F086
:1059F300A3E9124D71FA8E828F83A3A3E02AFAA33F
:105A0300E03400FBC3EA98EB9940308E828F83A386
:105A1300A3E0F8850882850983A3A3A3A3A3A3A373
:105A2300A3A3E0FA8E828F83A3A3A3A3E0C39A2840
:105A3300850882850983A3A3A3801085088285092D
:105A430083A3A3A3A3A3A3A31244D3A3A3A3A3A303
:105A5300F00239E7EE2425F582E43FF58322EE24B4
:105A630013FCE43FFD22125A6D22240EF582E43822
:105A7300F58322125A7A22E82410F582E439F58359
:105A830022A3A3A3A3A3A3A3A3A3125A9122E0F83F
:105A9300A3E0F922901BC7125A9E22E0F8A3E0C8A4
:105AA30022125CB9A3A3E022125AAF22F08A828B9E
:105AB3008322F0850A82850B83125A9E22F0125AA2
:105AC300C522EE2408FCE43FFD22125AAFA3AA82AA
:105AD300AB832274F512046C8C088D09750A007867
:105AE3000812098A7C0B7D0002642102096EC082C0
:105AF300C083791812259402474AC082C0838A82E0
:105B03008B83E0C3940B500312261202474AC082D0
:105B1300C083791980DE74F712046CEAFEEBFF9000
:105B23001C1E12501E6010901C1E12528B12261E39
